{
  "contractName": "Capitalization",
  "abi": [
    {
      "inputs": [
        {
          "internalType": "string",
          "name": "_poolName",
          "type": "string"
        },
        {
          "internalType": "uint256",
          "name": "_poolMaxAmount",
          "type": "uint256"
        },
        {
          "internalType": "uint256",
          "name": "_minimumContributionAmount",
          "type": "uint256"
        },
        {
          "internalType": "uint256",
          "name": "_contributionIncrementAmount",
          "type": "uint256"
        },
        {
          "internalType": "string",
          "name": "_repTokenName",
          "type": "string"
        },
        {
          "internalType": "string",
          "name": "_repTokenSymbol",
          "type": "string"
        }
      ],
      "stateMutability": "nonpayable",
      "type": "constructor"
    },
    {
      "inputs": [],
      "name": "capitalManager",
      "outputs": [
        {
          "internalType": "address",
          "name": "",
          "type": "address"
        }
      ],
      "stateMutability": "view",
      "type": "function"
    },
    {
      "inputs": [],
      "name": "contributionIncrementAmount",
      "outputs": [
        {
          "internalType": "uint256",
          "name": "",
          "type": "uint256"
        }
      ],
      "stateMutability": "view",
      "type": "function"
    },
    {
      "inputs": [],
      "name": "minimumContributionAmount",
      "outputs": [
        {
          "internalType": "uint256",
          "name": "",
          "type": "uint256"
        }
      ],
      "stateMutability": "view",
      "type": "function"
    },
    {
      "inputs": [],
      "name": "noOfUndewritersJoined",
      "outputs": [
        {
          "internalType": "uint256",
          "name": "",
          "type": "uint256"
        }
      ],
      "stateMutability": "view",
      "type": "function"
    },
    {
      "inputs": [],
      "name": "poolBalance",
      "outputs": [
        {
          "internalType": "uint256",
          "name": "",
          "type": "uint256"
        }
      ],
      "stateMutability": "view",
      "type": "function"
    },
    {
      "inputs": [],
      "name": "poolMaxAmount",
      "outputs": [
        {
          "internalType": "uint256",
          "name": "",
          "type": "uint256"
        }
      ],
      "stateMutability": "view",
      "type": "function"
    },
    {
      "inputs": [],
      "name": "poolName",
      "outputs": [
        {
          "internalType": "string",
          "name": "",
          "type": "string"
        }
      ],
      "stateMutability": "view",
      "type": "function"
    },
    {
      "inputs": [],
      "name": "repTokenName",
      "outputs": [
        {
          "internalType": "string",
          "name": "",
          "type": "string"
        }
      ],
      "stateMutability": "view",
      "type": "function"
    },
    {
      "inputs": [],
      "name": "repTokenSymbol",
      "outputs": [
        {
          "internalType": "string",
          "name": "",
          "type": "string"
        }
      ],
      "stateMutability": "view",
      "type": "function"
    },
    {
      "inputs": [
        {
          "internalType": "address",
          "name": "",
          "type": "address"
        }
      ],
      "name": "underwriters",
      "outputs": [
        {
          "internalType": "bool",
          "name": "hasJoined",
          "type": "bool"
        },
        {
          "internalType": "uint256",
          "name": "contributionAmount",
          "type": "uint256"
        },
        {
          "internalType": "uint256",
          "name": "currentRepTokenHoldings",
          "type": "uint256"
        },
        {
          "internalType": "address",
          "name": "underwriterAddress",
          "type": "address"
        }
      ],
      "stateMutability": "view",
      "type": "function"
    },
    {
      "inputs": [],
      "name": "joinPool",
      "outputs": [],
      "stateMutability": "nonpayable",
      "type": "function"
    },
    {
      "inputs": [],
      "name": "contributeToPool",
      "outputs": [],
      "stateMutability": "payable",
      "type": "function"
    },
    {
      "inputs": [],
      "name": "viewCapitalization",
      "outputs": [
        {
          "internalType": "string",
          "name": "_poolName",
          "type": "string"
        },
        {
          "internalType": "uint256",
          "name": "_noOfUndewritersJoined",
          "type": "uint256"
        },
        {
          "internalType": "uint256",
          "name": "_poolBalance",
          "type": "uint256"
        },
        {
          "internalType": "uint256",
          "name": "_poolMaxAmount",
          "type": "uint256"
        },
        {
          "internalType": "uint256",
          "name": "_minimumContributionAmount",
          "type": "uint256"
        },
        {
          "internalType": "uint256",
          "name": "_contributionIncrementAmount",
          "type": "uint256"
        },
        {
          "internalType": "string",
          "name": "_repTokenName",
          "type": "string"
        },
        {
          "internalType": "string",
          "name": "_repTokenSymbol",
          "type": "string"
        },
        {
          "internalType": "address",
          "name": "_capitalManager",
          "type": "address"
        }
      ],
      "stateMutability": "view",
      "type": "function"
    },
    {
      "inputs": [
        {
          "internalType": "address",
          "name": "underwriterAddressParam",
          "type": "address"
        }
      ],
      "name": "viewUnderwriter",
      "outputs": [
        {
          "internalType": "bool",
          "name": "_hasJoined",
          "type": "bool"
        },
        {
          "internalType": "uint256",
          "name": "_contributionAmount",
          "type": "uint256"
        },
        {
          "internalType": "uint256",
          "name": "_currentRepTokenHoldings",
          "type": "uint256"
        },
        {
          "internalType": "address",
          "name": "underwriterAddress",
          "type": "address"
        }
      ],
      "stateMutability": "view",
      "type": "function"
    }
  ],
  "bytecode": "0x608060405260006040516200001490620003c9565b80828152602001915050604051809103906000f0801580156200003b573d6000803e3d6000fd5b50600a60006101000a81548173ffffffffffffffffffffffffffffffffffffffff021916908373ffffffffffffffffffffffffffffffffffffffff1602179055503480156200008957600080fd5b506040516200471338038062004713833981810160405260c0811015620000af57600080fd5b8101908080516040519392919084640100000000821115620000d057600080fd5b83820191506020820185811115620000e757600080fd5b82518660018202830111640100000000821117156200010557600080fd5b8083526020830192505050908051906020019080838360005b838110156200013b5780820151818401526020810190506200011e565b50505050905090810190601f168015620001695780820380516001836020036101000a031916815260200191505b5060405260200180519060200190929190805190602001909291908051906020019092919080516040519392919084640100000000821115620001ab57600080fd5b83820191506020820185811115620001c257600080fd5b8251866001820283011164010000000082111715620001e057600080fd5b8083526020830192505050908051906020019080838360005b8381101562000216578082015181840152602081019050620001f9565b50505050905090810190601f168015620002445780820380516001836020036101000a031916815260200191505b50604052602001805160405193929190846401000000008211156200026857600080fd5b838201915060208201858111156200027f57600080fd5b82518660018202830111640100000000821117156200029d57600080fd5b8083526020830192505050908051906020019080838360005b83811015620002d3578082015181840152602081019050620002b6565b50505050905090810190601f168015620003015780820380516001836020036101000a031916815260200191505b50604052505050856000908051906020019062000320929190620003d7565b5084600381905550670de0b6b3a76400008402600481905550670de0b6b3a76400008302600581905550816006908051906020019062000362929190620003d7565b5080600790805190602001906200037b929190620003d7565b5033600860006101000a81548173ffffffffffffffffffffffffffffffffffffffff021916908373ffffffffffffffffffffffffffffffffffffffff16021790555050505050505062000486565b612f01806200181283390190565b828054600181600116156101000203166002900490600052602060002090601f016020900481019282601f106200041a57805160ff19168380011785556200044b565b828001600101855582156200044b579182015b828111156200044a5782518255916020019190600101906200042d565b5b5090506200045a91906200045e565b5090565b6200048391905b808211156200047f57600081600090555060010162000465565b5090565b90565b61137c80620004966000396000f3fe6080604052600436106100dd5760003560e01c80636c5e34b51161007f5780638371e6b4116100595780638371e6b41461046357806396365d441461047a578063c195317d146104a5578063f3466dfa14610663576100dd565b80636c5e34b51461027f5780636f0f76851461030f5780637d533642146103b9576100dd565b80635c7266e4116100bb5780635c7266e4146101c857806363591d09146101d2578063663a9cad146101fd5780636705976214610228576100dd565b80631be2ae59146100e257806337b028ef146101725780633f0e3b9c1461019d575b600080fd5b3480156100ee57600080fd5b506100f76106f3565b6040518080602001828103825283818151815260200191508051906020019080838360005b8381101561013757808201518184015260208101905061011c565b50505050905090810190601f1680156101645780820380516001836020036101000a031916815260200191505b509250505060405180910390f35b34801561017e57600080fd5b50610187610791565b6040518082815260200191505060405180910390f35b3480156101a957600080fd5b506101b2610797565b6040518082815260200191505060405180910390f35b6101d061079d565b005b3480156101de57600080fd5b506101e7610a94565b6040518082815260200191505060405180910390f35b34801561020957600080fd5b50610212610a9a565b6040518082815260200191505060405180910390f35b34801561023457600080fd5b5061023d610aa0565b604051808273ffffffffffffffffffffffffffffffffffffffff1673ffffffffffffffffffffffffffffffffffffffff16815260200191505060405180910390f35b34801561028b57600080fd5b50610294610ac6565b6040518080602001828103825283818151815260200191508051906020019080838360005b838110156102d45780820151818401526020810190506102b9565b50505050905090810190601f1680156103015780820380516001836020036101000a031916815260200191505b509250505060405180910390f35b34801561031b57600080fd5b5061035e6004803603602081101561033257600080fd5b81019080803573ffffffffffffffffffffffffffffffffffffffff169060200190929190505050610b64565b60405180851515151581526020018481526020018381526020018273ffffffffffffffffffffffffffffffffffffffff1673ffffffffffffffffffffffffffffffffffffffff16815260200194505050505060405180910390f35b3480156103c557600080fd5b50610408600480360360208110156103dc57600080fd5b81019080803573ffffffffffffffffffffffffffffffffffffffff169060200190929190505050610cb2565b60405180851515151581526020018481526020018381526020018273ffffffffffffffffffffffffffffffffffffffff1673ffffffffffffffffffffffffffffffffffffffff16815260200194505050505060405180910390f35b34801561046f57600080fd5b50610478610d0f565b005b34801561048657600080fd5b5061048f610ea5565b6040518082815260200191505060405180910390f35b3480156104b157600080fd5b506104ba610eab565b60405180806020018a815260200189815260200188815260200187815260200186815260200180602001806020018573ffffffffffffffffffffffffffffffffffffffff1673ffffffffffffffffffffffffffffffffffffffff16815260200184810384528d818151815260200191508051906020019080838360005b83811015610552578082015181840152602081019050610537565b50505050905090810190601f16801561057f5780820380516001836020036101000a031916815260200191505b50848103835287818151815260200191508051906020019080838360005b838110156105b857808201518184015260208101905061059d565b50505050905090810190601f1680156105e55780820380516001836020036101000a031916815260200191505b50848103825286818151815260200191508051906020019080838360005b8381101561061e578082015181840152602081019050610603565b50505050905090810190601f16801561064b5780820380516001836020036101000a031916815260200191505b509c5050505050505050505050505060405180910390f35b34801561066f57600080fd5b506106786110e2565b6040518080602001828103825283818151815260200191508051906020019080838360005b838110156106b857808201518184015260208101905061069d565b50505050905090810190601f1680156106e55780820380516001836020036101000a031916815260200191505b509250505060405180910390f35b60068054600181600116156101000203166002900480601f0160208091040260200160405190810160405280929190818152602001828054600181600116156101000203166002900480156107895780601f1061075e57610100808354040283529160200191610789565b820191906000526020600020905b81548152906001019060200180831161076c57829003601f168201915b505050505081565b60045481565b60015481565b60045434116107f7576040517f08c379a000000000000000000000000000000000000000000000000000000000815260040180806020018281038252608e81526020018061121b608e913960a00191505060405180910390fd5b6003543410610851576040517f08c379a000000000000000000000000000000000000000000000000000000000815260040180806020018281038252609a815260200180611181609a913960a00191505060405180910390fd5b6000670de0b6b3a7640000348161086457fe5b0614156108bc576040517f08c379a00000000000000000000000000000000000000000000000000000000081526004018080602001828103825260768152602001806112d16076913960800191505060405180910390fd5b60001515600960003373ffffffffffffffffffffffffffffffffffffffff1673ffffffffffffffffffffffffffffffffffffffff16815260200190815260200160002060000160009054906101000a900460ff161515141561092157610920610d0f565b5b3460026000828254019250508190555034600960003373ffffffffffffffffffffffffffffffffffffffff1673ffffffffffffffffffffffffffffffffffffffff16815260200190815260200160002060010160008282540192505081905550600a60009054906101000a900473ffffffffffffffffffffffffffffffffffffffff1673ffffffffffffffffffffffffffffffffffffffff166340c10f1933346040518363ffffffff1660e01b8152600401808373ffffffffffffffffffffffffffffffffffffffff1673ffffffffffffffffffffffffffffffffffffffff16815260200182815260200192505050600060405180830381600087803b158015610a2a57600080fd5b505af1158015610a3e573d6000803e3d6000fd5b5050505034600960003373ffffffffffffffffffffffffffffffffffffffff1673ffffffffffffffffffffffffffffffffffffffff16815260200190815260200160002060020160008282540192505081905550565b60035481565b60055481565b600860009054906101000a900473ffffffffffffffffffffffffffffffffffffffff1681565b60078054600181600116156101000203166002900480601f016020809104026020016040519081016040528092919081815260200182805460018160011615610100020316600290048015610b5c5780601f10610b3157610100808354040283529160200191610b5c565b820191906000526020600020905b815481529060010190602001808311610b3f57829003601f168201915b505050505081565b600080600080600960008673ffffffffffffffffffffffffffffffffffffffff1673ffffffffffffffffffffffffffffffffffffffff16815260200190815260200160002060000160009054906101000a900460ff16600960008773ffffffffffffffffffffffffffffffffffffffff1673ffffffffffffffffffffffffffffffffffffffff16815260200190815260200160002060010154600960008873ffffffffffffffffffffffffffffffffffffffff1673ffffffffffffffffffffffffffffffffffffffff16815260200190815260200160002060020154600960008973ffffffffffffffffffffffffffffffffffffffff1673ffffffffffffffffffffffffffffffffffffffff16815260200190815260200160002060030160009054906101000a900473ffffffffffffffffffffffffffffffffffffffff1693509350935093509193509193565b60096020528060005260406000206000915090508060000160009054906101000a900460ff16908060010154908060020154908060030160009054906101000a900473ffffffffffffffffffffffffffffffffffffffff16905084565b600960003373ffffffffffffffffffffffffffffffffffffffff1673ffffffffffffffffffffffffffffffffffffffff16815260200190815260200160002060000160009054906101000a900460ff1615610db5576040517f08c379a00000000000000000000000000000000000000000000000000000000081526004018080602001828103825260288152602001806112a96028913960400191505060405180910390fd5b33600960003373ffffffffffffffffffffffffffffffffffffffff1673ffffffffffffffffffffffffffffffffffffffff16815260200190815260200160002060030160006101000a81548173ffffffffffffffffffffffffffffffffffffffff021916908373ffffffffffffffffffffffffffffffffffffffff1602179055506001600960003373ffffffffffffffffffffffffffffffffffffffff1673ffffffffffffffffffffffffffffffffffffffff16815260200190815260200160002060000160006101000a81548160ff021916908315150217905550600160008154809291906001019190505550565b60025481565b6060600080600080600060608060008060015460025460035460045460055460066007600860009054906101000a900473ffffffffffffffffffffffffffffffffffffffff16888054600181600116156101000203166002900480601f016020809104026020016040519081016040528092919081815260200182805460018160011615610100020316600290048015610f865780601f10610f5b57610100808354040283529160200191610f86565b820191906000526020600020905b815481529060010190602001808311610f6957829003601f168201915b50505050509850828054600181600116156101000203166002900480601f0160208091040260200160405190810160405280929190818152602001828054600181600116156101000203166002900480156110225780601f10610ff757610100808354040283529160200191611022565b820191906000526020600020905b81548152906001019060200180831161100557829003601f168201915b50505050509250818054600181600116156101000203166002900480601f0160208091040260200160405190810160405280929190818152602001828054600181600116156101000203166002900480156110be5780601f10611093576101008083540402835291602001916110be565b820191906000526020600020905b8154815290600101906020018083116110a157829003601f168201915b50505050509150985098509850985098509850985098509850909192939495969798565b60008054600181600116156101000203166002900480601f0160208091040260200160405190810160405280929190818152602001828054600181600116156101000203166002900480156111785780601f1061114d57610100808354040283529160200191611178565b820191906000526020600020905b81548152906001019060200180831161115b57829003601f168201915b50505050508156fe596f752061726520617474656d7074696e6720746f20636f6e7472696275746520616e20616d6f756e7420746861742069732061626f766520746865206d6178696d756d20616d6f756e74207468652066756e64206973207365656b696e6720666f72206361706974616c697a6174696f6e2c20706c656173652072656475636520796f757220636f6e747269627574696f6e20616d6f756e74596f752061726520617474656d7074696e6720746f20636f6e7472696275746520616e20616d6f756e7420696e746f207468652066756e642074686174206973206c657373207468616e20746865206d696e696d756d20616d6f756e742c20796f75206d757374206174206c6561737420636f6e7472696275746520746865206d696e696d756d20616d6f756e74596f752061726520616c72656164792070617274206f66207468652063757272656e742066756e64596f752061726520617474656d7074696e6720746f20636f6e7472696275746520616e20616d6f756e742074686174206973206e6f7420616e20696e6372656d656e74206f662031204554482c20706c6561736520636f6e7472696275746520696e20696e6372656d656e7473206f66203120455448a26469706673582212206ab4b462b55f3ddf3d1e0a0cf42acd1ff0b84d9b87425f6f2b35257b68b049c064736f6c6343000608003360806040523480156200001157600080fd5b5060405162002f0138038062002f01833981810160405260208110156200003757600080fd5b81019080805190602001909291905050506040518060400160405280600b81526020017f4348495446554e445245500000000000000000000000000000000000000000008152506040518060400160405280600481526020017f434849540000000000000000000000000000000000000000000000000000000081525081818160049080519060200190620000ce929190620006c9565b508060059080519060200190620000e7929190620006c9565b506012600660006101000a81548160ff021916908360ff16021790555050506000600660016101000a81548160ff021916908315150217905550620001456000801b620001396200020c60201b60201c565b6200021460201b60201c565b6200019b60405180807f4d494e5445525f524f4c45000000000000000000000000000000000000000000815250600b01905060405180910390206200018f6200020c60201b60201c565b6200021460201b60201c565b620001f160405180807f5041555345525f524f4c45000000000000000000000000000000000000000000815250600b0190506040518091039020620001e56200020c60201b60201c565b6200021460201b60201c565b50506200020533826200022a60201b60201c565b5062000778565b600033905090565b6200022682826200040a60201b60201c565b5050565b600073ffffffffffffffffffffffffffffffffffffffff168273ffffffffffffffffffffffffffffffffffffffff161415620002ce576040517f08c379a000000000000000000000000000000000000000000000000000000000815260040180806020018281038252601f8152602001807f45524332303a206d696e7420746f20746865207a65726f20616464726573730081525060200191505060405180910390fd5b620002e260008383620004ad60201b60201c565b620002fe81600354620004ca60201b6200139f1790919060201c565b6003819055506200035d81600160008573ffffffffffffffffffffffffffffffffffffffff1673ffffffffffffffffffffffffffffffffffffffff16815260200190815260200160002054620004ca60201b6200139f1790919060201c565b600160008473ffffffffffffffffffffffffffffffffffffffff1673ffffffffffffffffffffffffffffffffffffffff168152602001908152602001600020819055508173ffffffffffffffffffffffffffffffffffffffff16600073ffffffffffffffffffffffffffffffffffffffff167fddf252ad1be2c89b69c2b068fc378daa952ba7f163c4a11628f55a4df523b3ef836040518082815260200191505060405180910390a35050565b62000438816000808581526020019081526020016000206000016200055360201b620014271790919060201c565b15620004a9576200044e6200020c60201b60201c565b73ffffffffffffffffffffffffffffffffffffffff168173ffffffffffffffffffffffffffffffffffffffff16837f2f8788117e7eff1d82e926ec794901d17c78024a50270940304540a733656f0d60405160405180910390a45b5050565b620004c58383836200058b60201b620014571760201c565b505050565b60008082840190508381101562000549576040517f08c379a000000000000000000000000000000000000000000000000000000000815260040180806020018281038252601b8152602001807f536166654d6174683a206164646974696f6e206f766572666c6f77000000000081525060200191505060405180910390fd5b8091505092915050565b600062000583836000018373ffffffffffffffffffffffffffffffffffffffff1660001b6200061060201b60201c565b905092915050565b620005a38383836200068a60201b620014c51760201c565b620005b36200068f60201b60201c565b156200060b576040517f08c379a000000000000000000000000000000000000000000000000000000000815260040180806020018281038252602a81526020018062002ed7602a913960400191505060405180910390fd5b505050565b6000620006248383620006a660201b60201c565b6200067f57826000018290806001815401808255809150506001900390600052602060002001600090919091909150558260000180549050836001016000848152602001908152602001600020819055506001905062000684565b600090505b92915050565b505050565b6000600660019054906101000a900460ff16905090565b600080836001016000848152602001908152602001600020541415905092915050565b828054600181600116156101000203166002900490600052602060002090601f016020900481019282601f106200070c57805160ff19168380011785556200073d565b828001600101855582156200073d579182015b828111156200073c5782518255916020019190600101906200071f565b5b5090506200074c919062000750565b5090565b6200077591905b808211156200077157600081600090555060010162000757565b5090565b90565b61274f80620007886000396000f3fe608060405234801561001057600080fd5b50600436106101a95760003560e01c806370a08231116100f9578063a457c2d711610097578063d539139311610071578063d539139314610888578063d547741f146108a6578063dd62ed3e146108f4578063e63ab1e91461096c576101a9565b8063a457c2d71461077a578063a9059cbb146107e0578063ca15c87314610846576101a9565b80639010d07c116100d35780639010d07c146105fb57806391d148541461067357806395d89b41146106d9578063a217fddf1461075c576101a9565b806370a082311461054b57806379cc6790146105a35780638456cb59146105f1576101a9565b8063313ce567116101665780633f4ba83a116101405780633f4ba83a146104a357806340c10f19146104ad57806342966c68146104fb5780635c975abb14610529576101a9565b8063313ce567146103cb57806336568abe146103ef578063395093511461043d576101a9565b806306fdde03146101ae578063095ea7b31461023157806318160ddd1461029757806323b872dd146102b5578063248a9ca31461033b5780632f2ff15d1461037d575b600080fd5b6101b661098a565b6040518080602001828103825283818151815260200191508051906020019080838360005b838110156101f65780820151818401526020810190506101db565b50505050905090810190601f1680156102235780820380516001836020036101000a031916815260200191505b509250505060405180910390f35b61027d6004803603604081101561024757600080fd5b81019080803573ffffffffffffffffffffffffffffffffffffffff16906020019092919080359060200190929190505050610a2c565b604051808215151515815260200191505060405180910390f35b61029f610a4a565b6040518082815260200191505060405180910390f35b610321600480360360608110156102cb57600080fd5b81019080803573ffffffffffffffffffffffffffffffffffffffff169060200190929190803573ffffffffffffffffffffffffffffffffffffffff16906020019092919080359060200190929190505050610a54565b604051808215151515815260200191505060405180910390f35b6103676004803603602081101561035157600080fd5b8101908080359060200190929190505050610b2d565b6040518082815260200191505060405180910390f35b6103c96004803603604081101561039357600080fd5b8101908080359060200190929190803573ffffffffffffffffffffffffffffffffffffffff169060200190929190505050610b4c565b005b6103d3610bd5565b604051808260ff1660ff16815260200191505060405180910390f35b61043b6004803603604081101561040557600080fd5b8101908080359060200190929190803573ffffffffffffffffffffffffffffffffffffffff169060200190929190505050610bec565b005b6104896004803603604081101561045357600080fd5b81019080803573ffffffffffffffffffffffffffffffffffffffff16906020019092919080359060200190929190505050610c85565b604051808215151515815260200191505060405180910390f35b6104ab610d38565b005b6104f9600480360360408110156104c357600080fd5b81019080803573ffffffffffffffffffffffffffffffffffffffff16906020019092919080359060200190929190505050610ddd565b005b6105276004803603602081101561051157600080fd5b8101908080359060200190929190505050610e86565b005b610531610e9a565b604051808215151515815260200191505060405180910390f35b61058d6004803603602081101561056157600080fd5b81019080803573ffffffffffffffffffffffffffffffffffffffff169060200190929190505050610eb1565b6040518082815260200191505060405180910390f35b6105ef600480360360408110156105b957600080fd5b81019080803573ffffffffffffffffffffffffffffffffffffffff16906020019092919080359060200190929190505050610efa565b005b6105f9610f5c565b005b6106316004803603604081101561061157600080fd5b810190808035906020019092919080359060200190929190505050611001565b604051808273ffffffffffffffffffffffffffffffffffffffff1673ffffffffffffffffffffffffffffffffffffffff16815260200191505060405180910390f35b6106bf6004803603604081101561068957600080fd5b8101908080359060200190929190803573ffffffffffffffffffffffffffffffffffffffff169060200190929190505050611032565b604051808215151515815260200191505060405180910390f35b6106e1611063565b6040518080602001828103825283818151815260200191508051906020019080838360005b83811015610721578082015181840152602081019050610706565b50505050905090810190601f16801561074e5780820380516001836020036101000a031916815260200191505b509250505060405180910390f35b610764611105565b6040518082815260200191505060405180910390f35b6107c66004803603604081101561079057600080fd5b81019080803573ffffffffffffffffffffffffffffffffffffffff1690602001909291908035906020019092919050505061110c565b604051808215151515815260200191505060405180910390f35b61082c600480360360408110156107f657600080fd5b81019080803573ffffffffffffffffffffffffffffffffffffffff169060200190929190803590602001909291905050506111d9565b604051808215151515815260200191505060405180910390f35b6108726004803603602081101561085c57600080fd5b81019080803590602001909291905050506111f7565b6040518082815260200191505060405180910390f35b61089061121d565b6040518082815260200191505060405180910390f35b6108f2600480360360408110156108bc57600080fd5b8101908080359060200190929190803573ffffffffffffffffffffffffffffffffffffffff169060200190929190505050611256565b005b6109566004803603604081101561090a57600080fd5b81019080803573ffffffffffffffffffffffffffffffffffffffff169060200190929190803573ffffffffffffffffffffffffffffffffffffffff1690602001909291905050506112df565b6040518082815260200191505060405180910390f35b610974611366565b6040518082815260200191505060405180910390f35b606060048054600181600116156101000203166002900480601f016020809104026020016040519081016040528092919081815260200182805460018160011615610100020316600290048015610a225780601f106109f757610100808354040283529160200191610a22565b820191906000526020600020905b815481529060010190602001808311610a0557829003601f168201915b5050505050905090565b6000610a40610a396114ca565b84846114d2565b6001905092915050565b6000600354905090565b6000610a618484846116c9565b610b2284610a6d6114ca565b610b1d8560405180606001604052806028815260200161257960289139600260008b73ffffffffffffffffffffffffffffffffffffffff1673ffffffffffffffffffffffffffffffffffffffff1681526020019081526020016000206000610ad36114ca565b73ffffffffffffffffffffffffffffffffffffffff1673ffffffffffffffffffffffffffffffffffffffff1681526020019081526020016000205461198e9092919063ffffffff16565b6114d2565b600190509392505050565b6000806000838152602001908152602001600020600201549050919050565b610b7260008084815260200190815260200160002060020154610b6d6114ca565b611032565b610bc7576040517f08c379a000000000000000000000000000000000000000000000000000000000815260040180806020018281038252602f815260200180612477602f913960400191505060405180910390fd5b610bd18282611a48565b5050565b6000600660009054906101000a900460ff16905090565b610bf46114ca565b73ffffffffffffffffffffffffffffffffffffffff168173ffffffffffffffffffffffffffffffffffffffff1614610c77576040517f08c379a000000000000000000000000000000000000000000000000000000000815260040180806020018281038252602f8152602001806126c1602f913960400191505060405180910390fd5b610c818282611adb565b5050565b6000610d2e610c926114ca565b84610d298560026000610ca36114ca565b73ffffffffffffffffffffffffffffffffffffffff1673ffffffffffffffffffffffffffffffffffffffff16815260200190815260200160002060008973ffffffffffffffffffffffffffffffffffffffff1673ffffffffffffffffffffffffffffffffffffffff1681526020019081526020016000205461139f90919063ffffffff16565b6114d2565b6001905092915050565b610d7e60405180807f5041555345525f524f4c45000000000000000000000000000000000000000000815250600b0190506040518091039020610d796114ca565b611032565b610dd3576040517f08c379a00000000000000000000000000000000000000000000000000000000081526004018080602001828103825260398152602001806124c86039913960400191505060405180910390fd5b610ddb611b6e565b565b610e2360405180807f4d494e5445525f524f4c45000000000000000000000000000000000000000000815250600b0190506040518091039020610e1e6114ca565b611032565b610e78576040517f08c379a00000000000000000000000000000000000000000000000000000000081526004018080602001828103825260368152602001806125a16036913960400191505060405180910390fd5b610e828282611c6f565b5050565b610e97610e916114ca565b82611e38565b50565b6000600660019054906101000a900460ff16905090565b6000600160008373ffffffffffffffffffffffffffffffffffffffff1673ffffffffffffffffffffffffffffffffffffffff168152602001908152602001600020549050919050565b6000610f39826040518060600160405280602481526020016125d760249139610f2a86610f256114ca565b6112df565b61198e9092919063ffffffff16565b9050610f4d83610f476114ca565b836114d2565b610f578383611e38565b505050565b610fa260405180807f5041555345525f524f4c45000000000000000000000000000000000000000000815250600b0190506040518091039020610f9d6114ca565b611032565b610ff7576040517f08c379a00000000000000000000000000000000000000000000000000000000081526004018080602001828103825260378152602001806126656037913960400191505060405180910390fd5b610fff611ffe565b565b600061102a8260008086815260200190815260200160002060000161210090919063ffffffff16565b905092915050565b600061105b8260008086815260200190815260200160002060000161211a90919063ffffffff16565b905092915050565b606060058054600181600116156101000203166002900480601f0160208091040260200160405190810160405280929190818152602001828054600181600116156101000203166002900480156110fb5780601f106110d0576101008083540402835291602001916110fb565b820191906000526020600020905b8154815290600101906020018083116110de57829003601f168201915b5050505050905090565b6000801b81565b60006111cf6111196114ca565b846111ca8560405180606001604052806025815260200161269c60259139600260006111436114ca565b73ffffffffffffffffffffffffffffffffffffffff1673ffffffffffffffffffffffffffffffffffffffff16815260200190815260200160002060008a73ffffffffffffffffffffffffffffffffffffffff1673ffffffffffffffffffffffffffffffffffffffff1681526020019081526020016000205461198e9092919063ffffffff16565b6114d2565b6001905092915050565b60006111ed6111e66114ca565b84846116c9565b6001905092915050565b600061121660008084815260200190815260200160002060000161214a565b9050919050565b60405180807f4d494e5445525f524f4c45000000000000000000000000000000000000000000815250600b019050604051809103902081565b61127c600080848152602001908152602001600020600201546112776114ca565b611032565b6112d1576040517f08c379a00000000000000000000000000000000000000000000000000000000081526004018080602001828103825260308152602001806125496030913960400191505060405180910390fd5b6112db8282611adb565b5050565b6000600260008473ffffffffffffffffffffffffffffffffffffffff1673ffffffffffffffffffffffffffffffffffffffff16815260200190815260200160002060008373ffffffffffffffffffffffffffffffffffffffff1673ffffffffffffffffffffffffffffffffffffffff16815260200190815260200160002054905092915050565b60405180807f5041555345525f524f4c45000000000000000000000000000000000000000000815250600b019050604051809103902081565b60008082840190508381101561141d576040517f08c379a000000000000000000000000000000000000000000000000000000000815260040180806020018281038252601b8152602001807f536166654d6174683a206164646974696f6e206f766572666c6f77000000000081525060200191505060405180910390fd5b8091505092915050565b600061144f836000018373ffffffffffffffffffffffffffffffffffffffff1660001b61215f565b905092915050565b6114628383836114c5565b61146a610e9a565b156114c0576040517f08c379a000000000000000000000000000000000000000000000000000000000815260040180806020018281038252602a8152602001806126f0602a913960400191505060405180910390fd5b505050565b505050565b600033905090565b600073ffffffffffffffffffffffffffffffffffffffff168373ffffffffffffffffffffffffffffffffffffffff161415611558576040517f08c379a00000000000000000000000000000000000000000000000000000000081526004018080602001828103825260248152602001806126416024913960400191505060405180910390fd5b600073ffffffffffffffffffffffffffffffffffffffff168273ffffffffffffffffffffffffffffffffffffffff1614156115de576040517f08c379a00000000000000000000000000000000000000000000000000000000081526004018080602001828103825260228152602001806125016022913960400191505060405180910390fd5b80600260008573ffffffffffffffffffffffffffffffffffffffff1673ffffffffffffffffffffffffffffffffffffffff16815260200190815260200160002060008473ffffffffffffffffffffffffffffffffffffffff1673ffffffffffffffffffffffffffffffffffffffff168152602001908152602001600020819055508173ffffffffffffffffffffffffffffffffffffffff168373ffffffffffffffffffffffffffffffffffffffff167f8c5be1e5ebec7d5bd14f71427d1e84f3dd0314c0f7b2291e5b200ac8c7c3b925836040518082815260200191505060405180910390a3505050565b600073ffffffffffffffffffffffffffffffffffffffff168373ffffffffffffffffffffffffffffffffffffffff16141561174f576040517f08c379a000000000000000000000000000000000000000000000000000000000815260040180806020018281038252602581526020018061261c6025913960400191505060405180910390fd5b600073ffffffffffffffffffffffffffffffffffffffff168273ffffffffffffffffffffffffffffffffffffffff1614156117d5576040517f08c379a00000000000000000000000000000000000000000000000000000000081526004018080602001828103825260238152602001806124546023913960400191505060405180910390fd5b6117e08383836121cf565b61184c8160405180606001604052806026815260200161252360269139600160008773ffffffffffffffffffffffffffffffffffffffff1673ffffffffffffffffffffffffffffffffffffffff1681526020019081526020016000205461198e9092919063ffffffff16565b600160008573ffffffffffffffffffffffffffffffffffffffff1673ffffffffffffffffffffffffffffffffffffffff168152602001908152602001600020819055506118e181600160008573ffffffffffffffffffffffffffffffffffffffff1673ffffffffffffffffffffffffffffffffffffffff1681526020019081526020016000205461139f90919063ffffffff16565b600160008473ffffffffffffffffffffffffffffffffffffffff1673ffffffffffffffffffffffffffffffffffffffff168152602001908152602001600020819055508173ffffffffffffffffffffffffffffffffffffffff168373ffffffffffffffffffffffffffffffffffffffff167fddf252ad1be2c89b69c2b068fc378daa952ba7f163c4a11628f55a4df523b3ef836040518082815260200191505060405180910390a3505050565b6000838311158290611a3b576040517f08c379a00000000000000000000000000000000000000000000000000000000081526004018080602001828103825283818151815260200191508051906020019080838360005b83811015611a005780820151818401526020810190506119e5565b50505050905090810190601f168015611a2d5780820380516001836020036101000a031916815260200191505b509250505060405180910390fd5b5082840390509392505050565b611a6f8160008085815260200190815260200160002060000161142790919063ffffffff16565b15611ad757611a7c6114ca565b73ffffffffffffffffffffffffffffffffffffffff168173ffffffffffffffffffffffffffffffffffffffff16837f2f8788117e7eff1d82e926ec794901d17c78024a50270940304540a733656f0d60405160405180910390a45b5050565b611b02816000808581526020019081526020016000206000016121df90919063ffffffff16565b15611b6a57611b0f6114ca565b73ffffffffffffffffffffffffffffffffffffffff168173ffffffffffffffffffffffffffffffffffffffff16837ff6391f5c32d9c69d2a47ea670b442974b53935d1edc7fd64eb21e047a839171b60405160405180910390a45b5050565b611b76610e9a565b611be8576040517f08c379a00000000000000000000000000000000000000000000000000000000081526004018080602001828103825260148152602001807f5061757361626c653a206e6f742070617573656400000000000000000000000081525060200191505060405180910390fd5b6000600660016101000a81548160ff0219169083151502179055507f5db9ee0a495bf2e6ff9c91a7834c1ba4fdd244a5e8aa4e537bd38aeae4b073aa611c2c6114ca565b604051808273ffffffffffffffffffffffffffffffffffffffff1673ffffffffffffffffffffffffffffffffffffffff16815260200191505060405180910390a1565b600073ffffffffffffffffffffffffffffffffffffffff168273ffffffffffffffffffffffffffffffffffffffff161415611d12576040517f08c379a000000000000000000000000000000000000000000000000000000000815260040180806020018281038252601f8152602001807f45524332303a206d696e7420746f20746865207a65726f20616464726573730081525060200191505060405180910390fd5b611d1e600083836121cf565b611d338160035461139f90919063ffffffff16565b600381905550611d8b81600160008573ffffffffffffffffffffffffffffffffffffffff1673ffffffffffffffffffffffffffffffffffffffff1681526020019081526020016000205461139f90919063ffffffff16565b600160008473ffffffffffffffffffffffffffffffffffffffff1673ffffffffffffffffffffffffffffffffffffffff168152602001908152602001600020819055508173ffffffffffffffffffffffffffffffffffffffff16600073ffffffffffffffffffffffffffffffffffffffff167fddf252ad1be2c89b69c2b068fc378daa952ba7f163c4a11628f55a4df523b3ef836040518082815260200191505060405180910390a35050565b600073ffffffffffffffffffffffffffffffffffffffff168273ffffffffffffffffffffffffffffffffffffffff161415611ebe576040517f08c379a00000000000000000000000000000000000000000000000000000000081526004018080602001828103825260218152602001806125fb6021913960400191505060405180910390fd5b611eca826000836121cf565b611f36816040518060600160405280602281526020016124a660229139600160008673ffffffffffffffffffffffffffffffffffffffff1673ffffffffffffffffffffffffffffffffffffffff1681526020019081526020016000205461198e9092919063ffffffff16565b600160008473ffffffffffffffffffffffffffffffffffffffff1673ffffffffffffffffffffffffffffffffffffffff16815260200190815260200160002081905550611f8e8160035461220f90919063ffffffff16565b600381905550600073ffffffffffffffffffffffffffffffffffffffff168273ffffffffffffffffffffffffffffffffffffffff167fddf252ad1be2c89b69c2b068fc378daa952ba7f163c4a11628f55a4df523b3ef836040518082815260200191505060405180910390a35050565b612006610e9a565b15612079576040517f08c379a00000000000000000000000000000000000000000000000000000000081526004018080602001828103825260108152602001807f5061757361626c653a207061757365640000000000000000000000000000000081525060200191505060405180910390fd5b6001600660016101000a81548160ff0219169083151502179055507f62e78cea01bee320cd4e420270b5ea74000d11b0c9f74754ebdbfc544b05a2586120bd6114ca565b604051808273ffffffffffffffffffffffffffffffffffffffff1673ffffffffffffffffffffffffffffffffffffffff16815260200191505060405180910390a1565b600061210f8360000183612292565b60001c905092915050565b6000612142836000018373ffffffffffffffffffffffffffffffffffffffff1660001b612315565b905092915050565b600061215882600001612338565b9050919050565b600061216b8383612315565b6121c45782600001829080600181540180825580915050600190039060005260206000200160009091909190915055826000018054905083600101600084815260200190815260200160002081905550600190506121c9565b600090505b92915050565b6121da838383611457565b505050565b6000612207836000018373ffffffffffffffffffffffffffffffffffffffff1660001b612349565b905092915050565b600082821115612287576040517f08c379a000000000000000000000000000000000000000000000000000000000815260040180806020018281038252601e8152602001807f536166654d6174683a207375627472616374696f6e206f766572666c6f77000081525060200191505060405180910390fd5b818303905092915050565b6000818360000180549050116122f3576040517f08c379a00000000000000000000000000000000000000000000000000000000081526004018080602001828103825260228152602001806124326022913960400191505060405180910390fd5b82600001828154811061230257fe5b9060005260206000200154905092915050565b600080836001016000848152602001908152602001600020541415905092915050565b600081600001805490509050919050565b60008083600101600084815260200190815260200160002054905060008114612425576000600182039050600060018660000180549050039050600086600001828154811061239457fe5b90600052602060002001549050808760000184815481106123b157fe5b90600052602060002001819055506001830187600101600083815260200190815260200160002081905550866000018054806123e957fe5b6001900381819060005260206000200160009055905586600101600087815260200190815260200160002060009055600194505050505061242b565b60009150505b9291505056fe456e756d657261626c655365743a20696e646578206f7574206f6620626f756e647345524332303a207472616e7366657220746f20746865207a65726f2061646472657373416363657373436f6e74726f6c3a2073656e646572206d75737420626520616e2061646d696e20746f206772616e7445524332303a206275726e20616d6f756e7420657863656564732062616c616e636545524332305072657365744d696e7465725061757365723a206d75737420686176652070617573657220726f6c6520746f20756e706175736545524332303a20617070726f766520746f20746865207a65726f206164647265737345524332303a207472616e7366657220616d6f756e7420657863656564732062616c616e6365416363657373436f6e74726f6c3a2073656e646572206d75737420626520616e2061646d696e20746f207265766f6b6545524332303a207472616e7366657220616d6f756e74206578636565647320616c6c6f77616e636545524332305072657365744d696e7465725061757365723a206d7573742068617665206d696e74657220726f6c6520746f206d696e7445524332303a206275726e20616d6f756e74206578636565647320616c6c6f77616e636545524332303a206275726e2066726f6d20746865207a65726f206164647265737345524332303a207472616e736665722066726f6d20746865207a65726f206164647265737345524332303a20617070726f76652066726f6d20746865207a65726f206164647265737345524332305072657365744d696e7465725061757365723a206d75737420686176652070617573657220726f6c6520746f20706175736545524332303a2064656372656173656420616c6c6f77616e63652062656c6f77207a65726f416363657373436f6e74726f6c3a2063616e206f6e6c792072656e6f756e636520726f6c657320666f722073656c6645524332305061757361626c653a20746f6b656e207472616e73666572207768696c6520706175736564a2646970667358221220151ebcc5f6eb981414bd5b40d9645c401d1f4556581fa11341dc75b68e9709cf64736f6c6343000608003345524332305061757361626c653a20746f6b656e207472616e73666572207768696c6520706175736564",
  "immutableReferences": {},
  "source": "// SPDX-License-Identifier: MIT\r\n\r\npragma solidity ^0.6.8;\r\n\r\nimport \"@openzeppelin/contracts/math/SafeMath.sol\";\r\nimport \"./RepToken.sol\";\r\n\r\ncontract Capitalization {\r\n    using SafeMath for uint256;\r\n\r\n    string public poolName;\r\n    uint256 public noOfUndewritersJoined;\r\n    uint256 public poolBalance;\r\n    uint256 public poolMaxAmount;\r\n    uint256 public minimumContributionAmount;\r\n    uint256 public contributionIncrementAmount;\r\n    string public repTokenName;\r\n    string public repTokenSymbol;\r\n    address public capitalManager;\r\n\r\n    struct Underwriter {\r\n        bool hasJoined;\r\n        uint256 contributionAmount;\r\n        uint256 currentRepTokenHoldings;\r\n        address underwriterAddress;\r\n    }\r\n\r\n    mapping(address => Underwriter) public underwriters;\r\n\r\n    RepToken repToken = new RepToken(0);\r\n\r\n    constructor(\r\n        string memory _poolName,\r\n        uint256 _poolMaxAmount,\r\n        uint256 _minimumContributionAmount,\r\n        uint256 _contributionIncrementAmount,\r\n        string memory _repTokenName,\r\n        string memory _repTokenSymbol\r\n    ) public {\r\n        poolName = _poolName;\r\n        poolMaxAmount = _poolMaxAmount;\r\n        minimumContributionAmount = _minimumContributionAmount * 1e18; // 1e18 = 1eth, or 10000000000000000 wei\r\n        contributionIncrementAmount = _contributionIncrementAmount * 1e18;\r\n        repTokenName = _repTokenName;\r\n        repTokenSymbol = _repTokenSymbol;\r\n        capitalManager = msg.sender;  //TODO: consider adding this to constructor to make it configurable?\r\n    }\r\n\r\n    function joinPool() public {\r\n        require(\r\n            !underwriters[msg.sender].hasJoined, \"You are already part of the current fund\"\r\n        );\r\n        underwriters[msg.sender].underwriterAddress = msg.sender;\r\n        underwriters[msg.sender].hasJoined = true;\r\n        noOfUndewritersJoined++;\r\n    }\r\n\r\n    function contributeToPool() public payable {\r\n        require( msg.value > minimumContributionAmount,\r\n            \"You are attempting to contribute an amount into the fund that is less than the minimum amount, you must at least contribute the minimum amount\"\r\n        );\r\n        require( msg.value < poolMaxAmount,\r\n            \"You are attempting to contribute an amount that is above the maximum amount the fund is seeking for capitalization, please reduce your contribution amount\"\r\n        );\r\n        require( msg.value % 1 ether != 0, // check if contribution is in increment of exactly 1 eth\r\n            \"You are attempting to contribute an amount that is not an increment of 1 ETH, please contribute in increments of 1 ETH\"\r\n        );\r\n        if (underwriters[msg.sender].hasJoined == false) {\r\n            joinPool();\r\n        }\r\n        poolBalance += msg.value;\r\n        underwriters[msg.sender].contributionAmount += msg.value;\r\n        repToken.mint(msg.sender, msg.value);  // mint an equal amount of rep token to correspond with the amount of eth contributed\r\n        underwriters[msg.sender].currentRepTokenHoldings += msg.value;\r\n    }\r\n\r\n    function viewCapitalization()\r\n        public\r\n        view\r\n        returns (\r\n            string memory _poolName,\r\n            uint256 _noOfUndewritersJoined,\r\n            uint256 _poolBalance,\r\n            uint256 _poolMaxAmount,\r\n            uint256 _minimumContributionAmount,\r\n            uint256 _contributionIncrementAmount,\r\n            string memory _repTokenName,\r\n            string memory _repTokenSymbol,\r\n            address _capitalManager\r\n        )\r\n    {\r\n        return (\r\n            poolName,\r\n            noOfUndewritersJoined,\r\n            poolBalance,\r\n            poolMaxAmount,\r\n            minimumContributionAmount,\r\n            contributionIncrementAmount,\r\n            repTokenName,\r\n            repTokenSymbol,\r\n            capitalManager\r\n        );\r\n    }\r\n\r\n    function viewUnderwriter(address underwriterAddressParam)\r\n        public\r\n        view\r\n        returns (\r\n            bool _hasJoined,\r\n            uint256 _contributionAmount,\r\n            uint256 _currentRepTokenHoldings,\r\n            address underwriterAddress\r\n        )\r\n    {\r\n        return (\r\n            underwriters[underwriterAddressParam].hasJoined,\r\n            underwriters[underwriterAddressParam].contributionAmount,\r\n            underwriters[underwriterAddressParam].currentRepTokenHoldings,\r\n            underwriters[underwriterAddressParam].underwriterAddress\r\n        );\r\n    }\r\n\r\n\r\n    //TODO: make function to destroy this contract, have funds returned to underwriters\r\n\r\n}",
  "sourcePath": "C:\\Users\\aaols\\ICS-690-ETH\\chitFund\\contracts\\Capitalization.sol",
  "compiler": {
    "name": "solc",
    "version": "0.6.8+commit.0bbfe453.Emscripten.clang"
  },
  "schemaVersion": "3.4.4",
  "updatedAt": "2022-03-30T00:55:16.595Z",
  "devdoc": {
    "methods": {}
  },
  "userdoc": {
    "methods": {}
  }
}