{
  "contractName": "ChitFund",
  "abi": [
    {
      "inputs": [
        {
          "internalType": "string",
          "name": "_fundName",
          "type": "string"
        },
        {
          "internalType": "uint256",
          "name": "_installmentAmount",
          "type": "uint256"
        },
        {
          "internalType": "uint256",
          "name": "_noOfInstallments",
          "type": "uint256"
        },
        {
          "internalType": "uint256",
          "name": "_noOfInvestors",
          "type": "uint256"
        }
      ],
      "stateMutability": "nonpayable",
      "type": "constructor"
    },
    {
      "inputs": [],
      "name": "fundBalance",
      "outputs": [
        {
          "internalType": "uint256",
          "name": "",
          "type": "uint256"
        }
      ],
      "stateMutability": "view",
      "type": "function"
    },
    {
      "inputs": [],
      "name": "fundName",
      "outputs": [
        {
          "internalType": "string",
          "name": "",
          "type": "string"
        }
      ],
      "stateMutability": "view",
      "type": "function"
    },
    {
      "inputs": [],
      "name": "installmentAmount",
      "outputs": [
        {
          "internalType": "uint256",
          "name": "",
          "type": "uint256"
        }
      ],
      "stateMutability": "view",
      "type": "function"
    },
    {
      "inputs": [
        {
          "internalType": "address",
          "name": "",
          "type": "address"
        }
      ],
      "name": "investors",
      "outputs": [
        {
          "internalType": "bool",
          "name": "hasJoined",
          "type": "bool"
        },
        {
          "internalType": "bool",
          "name": "gotJackpot",
          "type": "bool"
        },
        {
          "internalType": "uint256",
          "name": "installementCounter",
          "type": "uint256"
        },
        {
          "internalType": "bool",
          "name": "isReadytoInvest",
          "type": "bool"
        },
        {
          "internalType": "bool",
          "name": "canBid",
          "type": "bool"
        },
        {
          "internalType": "uint256",
          "name": "currentBidPercentage",
          "type": "uint256"
        }
      ],
      "stateMutability": "view",
      "type": "function"
    },
    {
      "inputs": [],
      "name": "jackpot",
      "outputs": [
        {
          "internalType": "uint256",
          "name": "",
          "type": "uint256"
        }
      ],
      "stateMutability": "view",
      "type": "function"
    },
    {
      "inputs": [],
      "name": "manager",
      "outputs": [
        {
          "internalType": "address",
          "name": "",
          "type": "address"
        }
      ],
      "stateMutability": "view",
      "type": "function"
    },
    {
      "inputs": [],
      "name": "noOfInstallments",
      "outputs": [
        {
          "internalType": "uint256",
          "name": "",
          "type": "uint256"
        }
      ],
      "stateMutability": "view",
      "type": "function"
    },
    {
      "inputs": [],
      "name": "noOfInvestors",
      "outputs": [
        {
          "internalType": "uint256",
          "name": "",
          "type": "uint256"
        }
      ],
      "stateMutability": "view",
      "type": "function"
    },
    {
      "inputs": [],
      "name": "noOfInvestorsJoined",
      "outputs": [
        {
          "internalType": "uint256",
          "name": "",
          "type": "uint256"
        }
      ],
      "stateMutability": "view",
      "type": "function"
    },
    {
      "inputs": [],
      "name": "previusBid",
      "outputs": [
        {
          "internalType": "uint256",
          "name": "",
          "type": "uint256"
        }
      ],
      "stateMutability": "view",
      "type": "function"
    },
    {
      "inputs": [],
      "name": "winnersAmount",
      "outputs": [
        {
          "internalType": "uint256",
          "name": "",
          "type": "uint256"
        }
      ],
      "stateMutability": "view",
      "type": "function"
    },
    {
      "inputs": [],
      "name": "getinstallmentAmount",
      "outputs": [
        {
          "internalType": "uint256",
          "name": "_amount",
          "type": "uint256"
        }
      ],
      "stateMutability": "view",
      "type": "function"
    },
    {
      "inputs": [],
      "name": "joinFund",
      "outputs": [],
      "stateMutability": "nonpayable",
      "type": "function"
    },
    {
      "inputs": [],
      "name": "contribute",
      "outputs": [],
      "stateMutability": "payable",
      "type": "function"
    },
    {
      "inputs": [
        {
          "internalType": "uint256",
          "name": "_bid",
          "type": "uint256"
        }
      ],
      "name": "bidForJackpot",
      "outputs": [],
      "stateMutability": "nonpayable",
      "type": "function"
    },
    {
      "inputs": [],
      "name": "getWinner",
      "outputs": [
        {
          "internalType": "address",
          "name": "",
          "type": "address"
        }
      ],
      "stateMutability": "view",
      "type": "function"
    },
    {
      "inputs": [
        {
          "internalType": "address",
          "name": "_winner",
          "type": "address"
        }
      ],
      "name": "calculateWinnesJackpot",
      "outputs": [],
      "stateMutability": "nonpayable",
      "type": "function"
    },
    {
      "inputs": [],
      "name": "releaseFund",
      "outputs": [],
      "stateMutability": "payable",
      "type": "function"
    },
    {
      "inputs": [],
      "name": "viewFund",
      "outputs": [
        {
          "internalType": "string",
          "name": "fundName",
          "type": "string"
        },
        {
          "internalType": "uint256",
          "name": "jackpot",
          "type": "uint256"
        },
        {
          "internalType": "uint256",
          "name": "noOfInstallments",
          "type": "uint256"
        },
        {
          "internalType": "uint256",
          "name": "noOfInvestors",
          "type": "uint256"
        },
        {
          "internalType": "uint256",
          "name": "fundBalance",
          "type": "uint256"
        },
        {
          "internalType": "uint256",
          "name": "installmentAmount",
          "type": "uint256"
        },
        {
          "internalType": "uint256",
          "name": "noOfInvestorsJoined",
          "type": "uint256"
        }
      ],
      "stateMutability": "view",
      "type": "function"
    }
  ],
  "bytecode": "0x60806040526000600860006101000a81548173ffffffffffffffffffffffffffffffffffffffff021916908373ffffffffffffffffffffffffffffffffffffffff16021790555060006009553480156200005857600080fd5b50604051620017f8380380620017f8833981810160405260808110156200007e57600080fd5b81019080805160405193929190846401000000008211156200009f57600080fd5b83820191506020820185811115620000b657600080fd5b8251866001820283011164010000000082111715620000d457600080fd5b8083526020830192505050908051906020019080838360005b838110156200010a578082015181840152602081019050620000ed565b50505050905090810190601f168015620001385780820380516001836020036101000a031916815260200191505b506040526020018051906020019092919080519060200190929190805190602001909291905050508360009080519060200190620001789291906200028f565b50816002819055508060038190555033600460006101000a81548173ffffffffffffffffffffffffffffffffffffffff021916908373ffffffffffffffffffffffffffffffffffffffff160217905550670de0b6b3a76400008302600681905550620001f46006546003546200020460201b6200115e1760201c565b600181905550505050506200033e565b60008083141562000219576000905062000289565b60008284029050828482816200022b57fe5b041462000284576040517f08c379a0000000000000000000000000000000000000000000000000000000008152600401808060200182810382526021815260200180620017d76021913960400191505060405180910390fd5b809150505b92915050565b828054600181600116156101000203166002900490600052602060002090601f016020900481019282601f10620002d257805160ff191683800117855562000303565b8280016001018555821562000303579182015b8281111562000302578251825591602001919060010190620002e5565b5b50905062000312919062000316565b5090565b6200033b91905b80821115620003375760008160009055506001016200031d565b5090565b90565b611489806200034e6000396000f3fe6080604052600436106101145760003560e01c80638ca5dfc7116100a0578063a2ff553911610064578063a2ff5539146104bf578063b142a304146104c9578063b218a01e14610583578063c3ba5a54146105ae578063d7bb99ba146105d957610114565b80638ca5dfc7146103575780638d3613fd146103825780638e7ea5b2146103ad5780639075825b146104045780639ce1413b1461042f57610114565b806357cc772d116100e757806357cc772d146101dd57806363b6b4dd146102185780636b31ee01146102695780636f7bc9be146102945780638770998e1461032c57610114565b80632367df9b146101195780633c06794514610144578063481c6a751461016f5780634be957da146101c6575b600080fd5b34801561012557600080fd5b5061012e6105e3565b6040518082815260200191505060405180910390f35b34801561015057600080fd5b506101596105e9565b6040518082815260200191505060405180910390f35b34801561017b57600080fd5b506101846105ef565b604051808273ffffffffffffffffffffffffffffffffffffffff1673ffffffffffffffffffffffffffffffffffffffff16815260200191505060405180910390f35b3480156101d257600080fd5b506101db610615565b005b3480156101e957600080fd5b506102166004803603602081101561020057600080fd5b81019080803590602001909291905050506107e1565b005b34801561022457600080fd5b506102676004803603602081101561023b57600080fd5b81019080803573ffffffffffffffffffffffffffffffffffffffff169060200190929190505050610984565b005b34801561027557600080fd5b5061027e610a56565b6040518082815260200191505060405180910390f35b3480156102a057600080fd5b506102e3600480360360208110156102b757600080fd5b81019080803573ffffffffffffffffffffffffffffffffffffffff169060200190929190505050610a5c565b6040518087151515158152602001861515151581526020018581526020018415151515815260200183151515158152602001828152602001965050505050505060405180910390f35b34801561033857600080fd5b50610341610acc565b6040518082815260200191505060405180910390f35b34801561036357600080fd5b5061036c610ad2565b6040518082815260200191505060405180910390f35b34801561038e57600080fd5b50610397610ad8565b6040518082815260200191505060405180910390f35b3480156103b957600080fd5b506103c2610ade565b604051808273ffffffffffffffffffffffffffffffffffffffff1673ffffffffffffffffffffffffffffffffffffffff16815260200191505060405180910390f35b34801561041057600080fd5b50610419610b08565b6040518082815260200191505060405180910390f35b34801561043b57600080fd5b50610444610b0e565b6040518080602001828103825283818151815260200191508051906020019080838360005b83811015610484578082015181840152602081019050610469565b50505050905090810190601f1680156104b15780820380516001836020036101000a031916815260200191505b509250505060405180910390f35b6104c7610bac565b005b3480156104d557600080fd5b506104de610d53565b6040518080602001888152602001878152602001868152602001858152602001848152602001838152602001828103825289818151815260200191508051906020019080838360005b83811015610542578082015181840152602081019050610527565b50505050905090810190601f16801561056f5780820380516001836020036101000a031916815260200191505b509850505050505050505060405180910390f35b34801561058f57600080fd5b50610598610d7c565b6040518082815260200191505060405180910390f35b3480156105ba57600080fd5b506105c3610d86565b6040518082815260200191505060405180910390f35b6105e1610d8c565b005b60075481565b60055481565b600460009054906101000a900473ffffffffffffffffffffffffffffffffffffffff1681565b60035460075410610671576040517f08c379a000000000000000000000000000000000000000000000000000000000815260040180806020018281038252603c8152602001806113c3603c913960400191505060405180910390fd5b600b60003373ffffffffffffffffffffffffffffffffffffffff1673ffffffffffffffffffffffffffffffffffffffff16815260200190815260200160002060000160009054906101000a900460ff1615610717576040517f08c379a000000000000000000000000000000000000000000000000000000000815260040180806020018281038252602881526020018061142c6028913960400191505060405180910390fd5b6001600b60003373ffffffffffffffffffffffffffffffffffffffff1673ffffffffffffffffffffffffffffffffffffffff16815260200190815260200160002060000160006101000a81548160ff0219169083151502179055506001600b60003373ffffffffffffffffffffffffffffffffffffffff1673ffffffffffffffffffffffffffffffffffffffff16815260200190815260200160002060020160006101000a81548160ff021916908315150217905550600760008154809291906001019190505550565b600b60003373ffffffffffffffffffffffffffffffffffffffff1673ffffffffffffffffffffffffffffffffffffffff16815260200190815260200160002060020160019054906101000a900460ff16610886576040517f08c379a00000000000000000000000000000000000000000000000000000000081526004018080602001828103825260268152602001806113586026913960400191505060405180910390fd5b80600b60003373ffffffffffffffffffffffffffffffffffffffff1673ffffffffffffffffffffffffffffffffffffffff168152602001908152602001600020600301819055506001600b60003373ffffffffffffffffffffffffffffffffffffffff1673ffffffffffffffffffffffffffffffffffffffff16815260200190815260200160002060020160006101000a81548160ff02191690831515021790555060008190506009548211156109795733600860006101000a81548173ffffffffffffffffffffffffffffffffffffffff021916908373ffffffffffffffffffffffffffffffffffffffff1602179055505b816009819055505050565b6000600b60008373ffffffffffffffffffffffffffffffffffffffff1673ffffffffffffffffffffffffffffffffffffffff16815260200190815260200160002060030154905060006109d96005548361115e565b905060006109e88260646111e4565b90508060055403600a819055506000600b60008673ffffffffffffffffffffffffffffffffffffffff1673ffffffffffffffffffffffffffffffffffffffff16815260200190815260200160002060020160016101000a81548160ff02191690831515021790555050505050565b60015481565b600b6020528060005260406000206000915090508060000160009054906101000a900460ff16908060000160019054906101000a900460ff16908060010154908060020160009054906101000a900460ff16908060020160019054906101000a900460ff16908060030154905086565b60065481565b60025481565b60095481565b6000600860009054906101000a900473ffffffffffffffffffffffffffffffffffffffff16905090565b60035481565b60008054600181600116156101000203166002900480601f016020809104026020016040519081016040528092919081815260200182805460018160011615610100020316600290048015610ba45780601f10610b7957610100808354040283529160200191610ba4565b820191906000526020600020905b815481529060010190602001808311610b8757829003601f168201915b505050505081565b600460009054906101000a900473ffffffffffffffffffffffffffffffffffffffff1673ffffffffffffffffffffffffffffffffffffffff163373ffffffffffffffffffffffffffffffffffffffff1614610c6f576040517f08c379a00000000000000000000000000000000000000000000000000000000081526004018080602001828103825260058152602001807f4f6e6c792000000000000000000000000000000000000000000000000000000081525060200191505060405180910390fd5b60015460055414610ce8576040517f08c379a00000000000000000000000000000000000000000000000000000000081526004018080602001828103825260168152602001807f436f6e747269627574696f6e732072657175697265640000000000000000000081525060200191505060405180910390fd5b600860009054906101000a900473ffffffffffffffffffffffffffffffffffffffff1673ffffffffffffffffffffffffffffffffffffffff166108fc479081150290604051600060405180830381858888f19350505050158015610d50573d6000803e3d6000fd5b50565b606060008060008060008086868686868686965096509650965096509650965090919293949596565b6000600654905090565b600a5481565b6006543414610de6576040517f08c379a00000000000000000000000000000000000000000000000000000000081526004018080602001828103825260388152602001806112f56038913960400191505060405180910390fd5b600b60003373ffffffffffffffffffffffffffffffffffffffff1673ffffffffffffffffffffffffffffffffffffffff16815260200190815260200160002060000160009054906101000a900460ff16610e8b576040517f08c379a000000000000000000000000000000000000000000000000000000000815260040180806020018281038252602481526020018061137e6024913960400191505060405180910390fd5b600b60003373ffffffffffffffffffffffffffffffffffffffff1673ffffffffffffffffffffffffffffffffffffffff16815260200190815260200160002060020160009054906101000a900460ff16610f30576040517f08c379a000000000000000000000000000000000000000000000000000000000815260040180806020018281038252602d8152602001806113ff602d913960400191505060405180910390fd5b60015460055410610fa9576040517f08c379a000000000000000000000000000000000000000000000000000000000815260040180806020018281038252600c8152602001807f46756e642069732066756c6c000000000000000000000000000000000000000081525060200191505060405180910390fd5b600254600b60003373ffffffffffffffffffffffffffffffffffffffff1673ffffffffffffffffffffffffffffffffffffffff1681526020019081526020016000206001015410611045576040517f08c379a000000000000000000000000000000000000000000000000000000000815260040180806020018281038252602b81526020018061132d602b913960400191505060405180910390fd5b6001600b60003373ffffffffffffffffffffffffffffffffffffffff1673ffffffffffffffffffffffffffffffffffffffff168152602001908152602001600020600101600082825401925050819055506000600b60003373ffffffffffffffffffffffffffffffffffffffff1673ffffffffffffffffffffffffffffffffffffffff16815260200190815260200160002060020160006101000a81548160ff0219169083151502179055506001600b60003373ffffffffffffffffffffffffffffffffffffffff1673ffffffffffffffffffffffffffffffffffffffff16815260200190815260200160002060020160016101000a81548160ff02191690831515021790555034600560008282540192505081905550565b60008083141561117157600090506111de565b600082840290508284828161118257fe5b04146111d9576040517f08c379a00000000000000000000000000000000000000000000000000000000081526004018080602001828103825260218152602001806113a26021913960400191505060405180910390fd5b809150505b92915050565b600061122683836040518060400160405280601a81526020017f536166654d6174683a206469766973696f6e206279207a65726f00000000000081525061122e565b905092915050565b600080831182906112da576040517f08c379a00000000000000000000000000000000000000000000000000000000081526004018080602001828103825283818151815260200191508051906020019080838360005b8381101561129f578082015181840152602081019050611284565b50505050905090810190601f1680156112cc5780820380516001836020036101000a031916815260200191505b509250505060405180910390fd5b5060008385816112e657fe5b04905080915050939250505056fe537570706c69656420616d6f756e7420697320646966666572656e742066726f6d2074686520496e7374616c6c6d656e7420616d6f756e74596f75206861766520616c6c7265616479207061696c20616c6c2074686520696e7374616c6c6d656e7473596f75207765726520612077696e6e657220696e2070726576696f75732062696464696e6773596f7520617265206e6f742070617274206f66207468652063757272656e742066756e64536166654d6174683a206d756c7469706c69636174696f6e206f766572666c6f775468652066756e64207265616368656420697473206d6178696d756d20696e766573746f72732c20706c792074727920616e6f746865722066756e64596f752043616e20696e7665737420616674657220746865206a61636b706f7420697320616e6e6f756e636564596f752061726520616c72656164792070617274206f66207468652063757272656e742066756e64a2646970667358221220289a319ea1b0d32ed5fafb33d17cdb4b578c77c40daeb513614ca29e8b7fcb3b64736f6c63430006080033536166654d6174683a206d756c7469706c69636174696f6e206f766572666c6f77",
  "immutableReferences": {},
  "source": "// SPDX-License-Identifier: MIT\n\npragma solidity ^0.6.8;\n// import 'https://github.com/OpenZeppelin/openzeppelin-contracts/blob/master/contracts/math/SafeMath.sol';\nimport \"@openzeppelin/contracts/math/SafeMath.sol\";\n\n// contract ChitFundFactory {\n//     address[] public funds;\n//\n//     function createFund(string memory _fundName, uint _installmentAmount, uint _noOfInstallments, uint _noOfInvestors) public {\n//         ChitFund _newFund = new ChitFund(_fundName, _installmentAmount, _noOfInstallments, _noOfInvestors, msg.sender);\n//         address newFund= address(_newFund);\n//         funds.push(newFund);\n//     }\n//\n//     function listAllFunds() public view returns (address[] memory) {\n//         return funds;\n//     }\n//\n//     function getFunds(uint _index) public view returns (address) {\n//         return funds[_index];\n//     }\n// }\n\ncontract ChitFund {\n\n    using SafeMath for uint;\n\n    string public fundName;\n    uint public jackpot;\n    uint public noOfInstallments;\n    uint public noOfInvestors;\n    address public manager;\n    uint public fundBalance;\n    uint public installmentAmount;\n    uint public noOfInvestorsJoined;\n    address payable private winner =address(0);\n    uint public previusBid = 0;\n    uint public  winnersAmount;\n\n\n\n\n    struct Investor{\n      bool hasJoined;\n      bool gotJackpot;\n      uint installementCounter;\n      bool isReadytoInvest;\n      bool canBid;\n      uint currentBidPercentage;\n    }\n\n    mapping(address => Investor) public investors;\n\n    modifier isManager() {\n        require(msg.sender == manager,'Only ');\n        _;\n    }\n    constructor (string memory _fundName, uint _installmentAmount, uint _noOfInstallments, uint _noOfInvestors) public {\n        fundName = _fundName;\n        noOfInstallments = _noOfInstallments;\n        noOfInvestors = _noOfInvestors;\n        manager = msg.sender;\n        installmentAmount = _installmentAmount * 1e18;\n        jackpot = SafeMath.mul(installmentAmount,noOfInvestors);\n    }\n\n    function getinstallmentAmount() public view returns (uint _amount) {\n      return installmentAmount;\n    }\n\n\n\n\n    function joinFund() public {\n        require(noOfInvestorsJoined < noOfInvestors, 'The fund reached its maximum investors, ply try another fund');\n        require(!investors[msg.sender].hasJoined,'You are already part of the current fund');\n        investors[msg.sender].hasJoined = true;\n        investors[msg.sender].isReadytoInvest = true;\n        noOfInvestorsJoined++;\n    }\n\n    function contribute()  payable public {\n        require(msg.value == installmentAmount,'Supplied amount is different from the Installment amount');\n        require(investors[msg.sender].hasJoined,'You are not part of the current fund');\n        require(investors[msg.sender].isReadytoInvest,'You Can invest after the jackpot is announced');\n        require(fundBalance < jackpot,'Fund is full');\n        require(investors[msg.sender].installementCounter < noOfInstallments,'You have allready pail all the installments');\n        investors[msg.sender].installementCounter += 1;\n        investors[msg.sender].isReadytoInvest = false;\n        investors[msg.sender].canBid = true;\n\n\n        fundBalance += msg.value;\n    }\n\n    function bidForJackpot(uint _bid) public {\n        require(investors[msg.sender].canBid,'You were a winner in previous biddings');\n        investors[msg.sender].currentBidPercentage = _bid;\n        investors[msg.sender].isReadytoInvest = true;\n        uint previusBit = _bid;\n        if(_bid > previusBid){\n          winner = msg.sender;\n        }\n        previusBid = _bid;\n    }\n\n    function getWinner() view public returns (address) {\n      return winner;\n    }\n\n    function calculateWinnesJackpot(address _winner) public {\n      uint percentage = investors[_winner].currentBidPercentage;\n      uint x = SafeMath.mul(fundBalance,percentage);\n      uint y = SafeMath.div(x,100);\n      winnersAmount = fundBalance - y;\n      investors[_winner].canBid = false;\n\n    }\n\n\n    function releaseFund() public payable isManager {\n      require(fundBalance == jackpot,'Contributions required');\n          winner.transfer(address(this).balance);\n    }\n    function viewFund() public view returns (\n      string memory fundName,\n      uint jackpot,\n      uint noOfInstallments,\n      uint noOfInvestors,\n      uint fundBalance,\n      uint installmentAmount,\n      uint noOfInvestorsJoined )\n      {\n      return(fundName,jackpot,noOfInstallments,noOfInvestors,fundBalance,installmentAmount,noOfInvestorsJoined\n      );\n    }\n\n\n\n\n\n}\n",
  "sourcePath": "/home/hargobind/Desktop/projects/chitFund/contracts/ChitFund.sol",
  "compiler": {
    "name": "solc",
    "version": "0.6.8+commit.0bbfe453.Emscripten.clang"
  },
  "schemaVersion": "3.1.0",
  "updatedAt": "2020-05-24T23:22:39.453Z",
  "devdoc": {
    "methods": {}
  },
  "userdoc": {
    "methods": {}
  }
}