{
  "contractName": "ChitFund",
  "abi": [
    {
      "inputs": [
        {
          "internalType": "string",
          "name": "_fundName",
          "type": "string"
        },
        {
          "internalType": "uint256",
          "name": "_installmentAmount",
          "type": "uint256"
        },
        {
          "internalType": "uint256",
          "name": "_noOfInstallments",
          "type": "uint256"
        },
        {
          "internalType": "uint256",
          "name": "_noOfInvestors",
          "type": "uint256"
        }
      ],
      "stateMutability": "nonpayable",
      "type": "constructor"
    },
    {
      "inputs": [],
      "name": "fundBalance",
      "outputs": [
        {
          "internalType": "uint256",
          "name": "",
          "type": "uint256"
        }
      ],
      "stateMutability": "view",
      "type": "function",
      "constant": true
    },
    {
      "inputs": [],
      "name": "fundName",
      "outputs": [
        {
          "internalType": "string",
          "name": "",
          "type": "string"
        }
      ],
      "stateMutability": "view",
      "type": "function",
      "constant": true
    },
    {
      "inputs": [],
      "name": "installmentAmount",
      "outputs": [
        {
          "internalType": "uint256",
          "name": "",
          "type": "uint256"
        }
      ],
      "stateMutability": "view",
      "type": "function",
      "constant": true
    },
    {
      "inputs": [
        {
          "internalType": "address",
          "name": "",
          "type": "address"
        }
      ],
      "name": "investors",
      "outputs": [
        {
          "internalType": "bool",
          "name": "hasJoined",
          "type": "bool"
        },
        {
          "internalType": "bool",
          "name": "gotJackpot",
          "type": "bool"
        },
        {
          "internalType": "uint256",
          "name": "installementCounter",
          "type": "uint256"
        },
        {
          "internalType": "bool",
          "name": "isReadytoInvest",
          "type": "bool"
        },
        {
          "internalType": "bool",
          "name": "canBid",
          "type": "bool"
        },
        {
          "internalType": "uint256",
          "name": "currentBidPercentage",
          "type": "uint256"
        }
      ],
      "stateMutability": "view",
      "type": "function",
      "constant": true
    },
    {
      "inputs": [],
      "name": "jackpot",
      "outputs": [
        {
          "internalType": "uint256",
          "name": "",
          "type": "uint256"
        }
      ],
      "stateMutability": "view",
      "type": "function",
      "constant": true
    },
    {
      "inputs": [],
      "name": "noOfInstallments",
      "outputs": [
        {
          "internalType": "uint256",
          "name": "",
          "type": "uint256"
        }
      ],
      "stateMutability": "view",
      "type": "function",
      "constant": true
    },
    {
      "inputs": [],
      "name": "noOfInvestors",
      "outputs": [
        {
          "internalType": "uint256",
          "name": "",
          "type": "uint256"
        }
      ],
      "stateMutability": "view",
      "type": "function",
      "constant": true
    },
    {
      "inputs": [],
      "name": "noOfInvestorsJoined",
      "outputs": [
        {
          "internalType": "uint256",
          "name": "",
          "type": "uint256"
        }
      ],
      "stateMutability": "view",
      "type": "function",
      "constant": true
    },
    {
      "inputs": [],
      "name": "checkManager",
      "outputs": [
        {
          "internalType": "bool",
          "name": "",
          "type": "bool"
        }
      ],
      "stateMutability": "view",
      "type": "function",
      "constant": true
    },
    {
      "inputs": [],
      "name": "joinFund",
      "outputs": [],
      "stateMutability": "nonpayable",
      "type": "function"
    },
    {
      "inputs": [],
      "name": "contribute",
      "outputs": [],
      "stateMutability": "payable",
      "type": "function",
      "payable": true
    },
    {
      "inputs": [
        {
          "internalType": "uint256",
          "name": "_bid",
          "type": "uint256"
        }
      ],
      "name": "bidForJackpot",
      "outputs": [],
      "stateMutability": "nonpayable",
      "type": "function"
    },
    {
      "inputs": [],
      "name": "getWinner",
      "outputs": [
        {
          "internalType": "address",
          "name": "",
          "type": "address"
        }
      ],
      "stateMutability": "view",
      "type": "function",
      "constant": true
    },
    {
      "inputs": [],
      "name": "releaseFund",
      "outputs": [],
      "stateMutability": "payable",
      "type": "function",
      "payable": true
    },
    {
      "inputs": [],
      "name": "viewFund",
      "outputs": [
        {
          "internalType": "string",
          "name": "_fundName",
          "type": "string"
        },
        {
          "internalType": "uint256",
          "name": "_jackpot",
          "type": "uint256"
        },
        {
          "internalType": "uint256",
          "name": "_noOfInstallments",
          "type": "uint256"
        },
        {
          "internalType": "uint256",
          "name": "_noOfInvestors",
          "type": "uint256"
        },
        {
          "internalType": "uint256",
          "name": "_fundBalance",
          "type": "uint256"
        },
        {
          "internalType": "uint256",
          "name": "_installmentAmount",
          "type": "uint256"
        },
        {
          "internalType": "uint256",
          "name": "_noOfInvestorsJoined",
          "type": "uint256"
        }
      ],
      "stateMutability": "view",
      "type": "function",
      "constant": true
    }
  ],
  "bytecode": "0x60806040526000600860006101000a81548173ffffffffffffffffffffffffffffffffffffffff021916908373ffffffffffffffffffffffffffffffffffffffff16021790555060006009553480156200005857600080fd5b506040516200184838038062001848833981810160405260808110156200007e57600080fd5b81019080805160405193929190846401000000008211156200009f57600080fd5b83820191506020820185811115620000b657600080fd5b8251866001820283011164010000000082111715620000d457600080fd5b8083526020830192505050908051906020019080838360005b838110156200010a578082015181840152602081019050620000ed565b50505050905090810190601f168015620001385780820380516001836020036101000a031916815260200191505b506040526020018051906020019092919080519060200190929190805190602001909291905050508360009080519060200190620001789291906200028f565b50816002819055508060038190555033600460006101000a81548173ffffffffffffffffffffffffffffffffffffffff021916908373ffffffffffffffffffffffffffffffffffffffff160217905550670de0b6b3a76400008302600681905550620001f46006546003546200020460201b620010d41760201c565b600181905550505050506200033e565b60008083141562000219576000905062000289565b60008284029050828482816200022b57fe5b041462000284576040517f08c379a0000000000000000000000000000000000000000000000000000000008152600401808060200182810382526021815260200180620018276021913960400191505060405180910390fd5b809150505b92915050565b828054600181600116156101000203166002900490600052602060002090601f016020900481019282601f10620002d257805160ff191683800117855562000303565b8280016001018555821562000303579182015b8281111562000302578251825591602001919060010190620002e5565b5b50905062000312919062000316565b5090565b6200033b91905b80821115620003375760008160009055506001016200031d565b5090565b90565b6114d9806200034e6000396000f3fe6080604052600436106100e85760003560e01c80638ca5dfc71161008a578063a2ff553911610059578063a2ff5539146103c0578063b142a304146103ca578063d7bb99ba14610484578063dbacf5741461048e576100e8565b80638ca5dfc7146102835780638e7ea5b2146102ae5780639075825b146103055780639ce1413b14610330576100e8565b806357cc772d116100c657806357cc772d1461015a5780636b31ee01146101955780636f7bc9be146101c05780638770998e14610258576100e8565b80632367df9b146100ed5780633c067945146101185780634be957da14610143575b600080fd5b3480156100f957600080fd5b506101026104bd565b6040518082815260200191505060405180910390f35b34801561012457600080fd5b5061012d6104c3565b6040518082815260200191505060405180910390f35b34801561014f57600080fd5b506101586104c9565b005b34801561016657600080fd5b506101936004803603602081101561017d57600080fd5b8101908080359060200190929190505050610695565b005b3480156101a157600080fd5b506101aa610832565b6040518082815260200191505060405180910390f35b3480156101cc57600080fd5b5061020f600480360360208110156101e357600080fd5b81019080803573ffffffffffffffffffffffffffffffffffffffff169060200190929190505050610838565b6040518087151515158152602001861515151581526020018581526020018415151515815260200183151515158152602001828152602001965050505050505060405180910390f35b34801561026457600080fd5b5061026d6108a8565b6040518082815260200191505060405180910390f35b34801561028f57600080fd5b506102986108ae565b6040518082815260200191505060405180910390f35b3480156102ba57600080fd5b506102c36108b4565b604051808273ffffffffffffffffffffffffffffffffffffffff1673ffffffffffffffffffffffffffffffffffffffff16815260200191505060405180910390f35b34801561031157600080fd5b5061031a6108de565b6040518082815260200191505060405180910390f35b34801561033c57600080fd5b506103456108e4565b6040518080602001828103825283818151815260200191508051906020019080838360005b8381101561038557808201518184015260208101905061036a565b50505050905090810190601f1680156103b25780820380516001836020036101000a031916815260200191505b509250505060405180910390f35b6103c8610982565b005b3480156103d657600080fd5b506103df610b64565b6040518080602001888152602001878152602001868152602001858152602001848152602001838152602001828103825289818151815260200191508051906020019080838360005b83811015610443578082015181840152602081019050610428565b50505050905090810190601f1680156104705780820380516001836020036101000a031916815260200191505b509850505050505050505060405180910390f35b61048c610c36565b005b34801561049a57600080fd5b506104a3611008565b604051808215151515815260200191505060405180910390f35b60075481565b60055481565b60035460075410610525576040517f08c379a000000000000000000000000000000000000000000000000000000000815260040180806020018281038252603c815260200180611413603c913960400191505060405180910390fd5b600b60003373ffffffffffffffffffffffffffffffffffffffff1673ffffffffffffffffffffffffffffffffffffffff16815260200190815260200160002060000160009054906101000a900460ff16156105cb576040517f08c379a000000000000000000000000000000000000000000000000000000000815260040180806020018281038252602881526020018061147c6028913960400191505060405180910390fd5b6001600b60003373ffffffffffffffffffffffffffffffffffffffff1673ffffffffffffffffffffffffffffffffffffffff16815260200190815260200160002060000160006101000a81548160ff0219169083151502179055506001600b60003373ffffffffffffffffffffffffffffffffffffffff1673ffffffffffffffffffffffffffffffffffffffff16815260200190815260200160002060020160006101000a81548160ff021916908315150217905550600760008154809291906001019190505550565b600b60003373ffffffffffffffffffffffffffffffffffffffff1673ffffffffffffffffffffffffffffffffffffffff16815260200190815260200160002060020160019054906101000a900460ff1661073a576040517f08c379a00000000000000000000000000000000000000000000000000000000081526004018080602001828103825260268152602001806113a86026913960400191505060405180910390fd5b80600b60003373ffffffffffffffffffffffffffffffffffffffff1673ffffffffffffffffffffffffffffffffffffffff168152602001908152602001600020600301819055506001600b60003373ffffffffffffffffffffffffffffffffffffffff1673ffffffffffffffffffffffffffffffffffffffff16815260200190815260200160002060020160006101000a81548160ff02191690831515021790555060095481111561082f5733600860006101000a81548173ffffffffffffffffffffffffffffffffffffffff021916908373ffffffffffffffffffffffffffffffffffffffff160217905550806009819055505b50565b60015481565b600b6020528060005260406000206000915090508060000160009054906101000a900460ff16908060000160019054906101000a900460ff16908060010154908060020160009054906101000a900460ff16908060020160019054906101000a900460ff16908060030154905086565b60065481565b60025481565b6000600860009054906101000a900473ffffffffffffffffffffffffffffffffffffffff16905090565b60035481565b60008054600181600116156101000203166002900480601f01602080910402602001604051908101604052809291908181526020018280546001816001161561010002031660029004801561097a5780601f1061094f5761010080835404028352916020019161097a565b820191906000526020600020905b81548152906001019060200180831161095d57829003601f168201915b505050505081565b600460009054906101000a900473ffffffffffffffffffffffffffffffffffffffff1673ffffffffffffffffffffffffffffffffffffffff163373ffffffffffffffffffffffffffffffffffffffff1614610a45576040517f08c379a000000000000000000000000000000000000000000000000000000000815260040180806020018281038252600d8152602001807f4f6e6c79204d616e61676572200000000000000000000000000000000000000081525060200191505060405180910390fd5b60015460055414610abe576040517f08c379a00000000000000000000000000000000000000000000000000000000081526004018080602001828103825260168152602001807f436f6e747269627574696f6e732072657175697265640000000000000000000081525060200191505060405180910390fd5b6000610aeb600860009054906101000a900473ffffffffffffffffffffffffffffffffffffffff1661115a565b9050600860009054906101000a900473ffffffffffffffffffffffffffffffffffffffff1673ffffffffffffffffffffffffffffffffffffffff166108fc829081150290604051600060405180830381858888f19350505050158015610b55573d6000803e3d6000fd5b50806005540360058190555050565b60606000806000806000806000600154600254600354600554600654600754868054600181600116156101000203166002900480601f016020809104026020016040519081016040528092919081815260200182805460018160011615610100020316600290048015610c185780601f10610bed57610100808354040283529160200191610c18565b820191906000526020600020905b815481529060010190602001808311610bfb57829003601f168201915b50505050509650965096509650965096509650965090919293949596565b6006543414610c90576040517f08c379a00000000000000000000000000000000000000000000000000000000081526004018080602001828103825260388152602001806113456038913960400191505060405180910390fd5b600b60003373ffffffffffffffffffffffffffffffffffffffff1673ffffffffffffffffffffffffffffffffffffffff16815260200190815260200160002060000160009054906101000a900460ff16610d35576040517f08c379a00000000000000000000000000000000000000000000000000000000081526004018080602001828103825260248152602001806113ce6024913960400191505060405180910390fd5b600b60003373ffffffffffffffffffffffffffffffffffffffff1673ffffffffffffffffffffffffffffffffffffffff16815260200190815260200160002060020160009054906101000a900460ff16610dda576040517f08c379a000000000000000000000000000000000000000000000000000000000815260040180806020018281038252602d81526020018061144f602d913960400191505060405180910390fd5b60015460055410610e53576040517f08c379a000000000000000000000000000000000000000000000000000000000815260040180806020018281038252600c8152602001807f46756e642069732066756c6c000000000000000000000000000000000000000081525060200191505060405180910390fd5b600254600b60003373ffffffffffffffffffffffffffffffffffffffff1673ffffffffffffffffffffffffffffffffffffffff1681526020019081526020016000206001015410610eef576040517f08c379a000000000000000000000000000000000000000000000000000000000815260040180806020018281038252602b81526020018061137d602b913960400191505060405180910390fd5b6001600b60003373ffffffffffffffffffffffffffffffffffffffff1673ffffffffffffffffffffffffffffffffffffffff168152602001908152602001600020600101600082825401925050819055506000600b60003373ffffffffffffffffffffffffffffffffffffffff1673ffffffffffffffffffffffffffffffffffffffff16815260200190815260200160002060020160006101000a81548160ff0219169083151502179055506001600b60003373ffffffffffffffffffffffffffffffffffffffff1673ffffffffffffffffffffffffffffffffffffffff16815260200190815260200160002060020160016101000a81548160ff02191690831515021790555034600560008282540192505081905550565b6000600460009054906101000a900473ffffffffffffffffffffffffffffffffffffffff1673ffffffffffffffffffffffffffffffffffffffff163373ffffffffffffffffffffffffffffffffffffffff16146110cd576040517f08c379a000000000000000000000000000000000000000000000000000000000815260040180806020018281038252600d8152602001807f4f6e6c79204d616e61676572200000000000000000000000000000000000000081525060200191505060405180910390fd5b6001905090565b6000808314156110e75760009050611154565b60008284029050828482816110f857fe5b041461114f576040517f08c379a00000000000000000000000000000000000000000000000000000000081526004018080602001828103825260218152602001806113f26021913960400191505060405180910390fd5b809150505b92915050565b600080600b60008473ffffffffffffffffffffffffffffffffffffffff1673ffffffffffffffffffffffffffffffffffffffff16815260200190815260200160002060030154905060006111b0600554836110d4565b905060006111bf826064611234565b90508060055403600a819055506000600b60008773ffffffffffffffffffffffffffffffffffffffff1673ffffffffffffffffffffffffffffffffffffffff16815260200190815260200160002060020160016101000a81548160ff021916908315150217905550600a549350505050919050565b600061127683836040518060400160405280601a81526020017f536166654d6174683a206469766973696f6e206279207a65726f00000000000081525061127e565b905092915050565b6000808311829061132a576040517f08c379a00000000000000000000000000000000000000000000000000000000081526004018080602001828103825283818151815260200191508051906020019080838360005b838110156112ef5780820151818401526020810190506112d4565b50505050905090810190601f16801561131c5780820380516001836020036101000a031916815260200191505b509250505060405180910390fd5b50600083858161133657fe5b04905080915050939250505056fe537570706c69656420616d6f756e7420697320646966666572656e742066726f6d2074686520496e7374616c6c6d656e7420616d6f756e74596f75206861766520616c6c7265616479207061696c20616c6c2074686520696e7374616c6c6d656e7473596f75207765726520612077696e6e657220696e2070726576696f75732062696464696e6773596f7520617265206e6f742070617274206f66207468652063757272656e742066756e64536166654d6174683a206d756c7469706c69636174696f6e206f766572666c6f775468652066756e64207265616368656420697473206d6178696d756d20696e766573746f72732c20706c792074727920616e6f746865722066756e64596f752043616e20696e7665737420616674657220746865206a61636b706f7420697320616e6e6f756e636564596f752061726520616c72656164792070617274206f66207468652063757272656e742066756e64a26469706673582212204baa006bd2c0698bf67a00e1bd0b453ee5b9eb2ed2994a8f3d6420feed59044864736f6c63430006080033536166654d6174683a206d756c7469706c69636174696f6e206f766572666c6f77",
  "immutableReferences": {},
  "source": "// SPDX-License-Identifier: MIT\r\n\r\npragma solidity ^0.6.8;\r\n// import \"../node_modules/@openzeppelin/contracts/math/SafeMath.sol\";\r\n\r\nimport \"@openzeppelin/contracts/math/SafeMath.sol\";\r\n\r\ncontract ChitFund {\r\n    using SafeMath for uint256;\r\n\r\n    string public fundName;\r\n    uint256 public jackpot;\r\n    uint256 public noOfInstallments;\r\n    uint256 public noOfInvestors;\r\n    address private manager;\r\n    uint256 public fundBalance;\r\n    uint256 public installmentAmount;\r\n    uint256 public noOfInvestorsJoined;\r\n    address payable private winner = address(0);\r\n    uint256 private winnersBid = 0;\r\n    uint256 private winnersAmount;\r\n\r\n    // string private fundName;\r\n    // uint256 private jackpot;\r\n    // uint256 private noOfInstallments;\r\n    // uint256 private noOfInvestors;\r\n    // address private manager;\r\n    // uint256 private fundBalance;\r\n    // uint256 private installmentAmount;\r\n    // uint256 private noOfInvestorsJoined;\r\n    // address payable private winner = address(0);\r\n    // uint256 private winnersBid = 0;\r\n    // uint256 private winnersAmount;\r\n\r\n    struct Investor {\r\n        bool hasJoined;\r\n        bool gotJackpot;\r\n        uint256 installementCounter;\r\n        bool isReadytoInvest;\r\n        bool canBid;\r\n        uint256 currentBidPercentage;\r\n    }\r\n\r\n    mapping(address => Investor) public investors;\r\n\r\n    modifier isManager() {\r\n        require(msg.sender == manager, \"Only Manager \");\r\n        _;\r\n    }\r\n\r\n    function checkManager() public view returns (bool) {\r\n        require(msg.sender == manager, \"Only Manager \");\r\n        return true;\r\n    }\r\n\r\n    constructor(\r\n        string memory _fundName,\r\n        uint256 _installmentAmount,\r\n        uint256 _noOfInstallments,\r\n        uint256 _noOfInvestors\r\n    ) public {\r\n        fundName = _fundName;\r\n        noOfInstallments = _noOfInstallments;\r\n        noOfInvestors = _noOfInvestors;\r\n        manager = msg.sender;\r\n        installmentAmount = _installmentAmount * 1e18;\r\n        jackpot = SafeMath.mul(installmentAmount, noOfInvestors);\r\n    }\r\n\r\n    // function getinstallmentAmount() public view returns (uint _amount) {\r\n    //   return installmentAmount;\r\n    // }\r\n\r\n    function joinFund() public {\r\n        require(\r\n            noOfInvestorsJoined < noOfInvestors,\r\n            \"The fund reached its maximum investors, ply try another fund\"\r\n        );\r\n        require(\r\n            !investors[msg.sender].hasJoined,\r\n            \"You are already part of the current fund\"\r\n        );\r\n        investors[msg.sender].hasJoined = true;\r\n        investors[msg.sender].isReadytoInvest = true;\r\n        noOfInvestorsJoined++;\r\n    }\r\n\r\n    function contribute() public payable {\r\n        require(\r\n            msg.value == installmentAmount,\r\n            \"Supplied amount is different from the Installment amount\"\r\n        );\r\n        require(\r\n            investors[msg.sender].hasJoined,\r\n            \"You are not part of the current fund\"\r\n        );\r\n        require(\r\n            investors[msg.sender].isReadytoInvest,\r\n            \"You Can invest after the jackpot is announced\"\r\n        );\r\n        require(fundBalance < jackpot, \"Fund is full\");\r\n        require(\r\n            investors[msg.sender].installementCounter < noOfInstallments,\r\n            \"You have allready pail all the installments\"\r\n        );\r\n        investors[msg.sender].installementCounter += 1;\r\n        investors[msg.sender].isReadytoInvest = false;\r\n        investors[msg.sender].canBid = true;\r\n\r\n        fundBalance += msg.value;\r\n    }\r\n\r\n    function bidForJackpot(uint256 _bid) public {\r\n        require(\r\n            investors[msg.sender].canBid,\r\n            \"You were a winner in previous biddings\"\r\n        );\r\n        investors[msg.sender].currentBidPercentage = _bid;\r\n        investors[msg.sender].isReadytoInvest = true;\r\n        // winnersBid = _bid;\r\n        if (_bid > winnersBid) {\r\n            winner = msg.sender;\r\n            winnersBid = _bid;\r\n        }\r\n    }\r\n\r\n    function getWinner() public view returns (address) {\r\n        return winner;\r\n    }\r\n\r\n    function calculateWinnesJackpot(address _winner) private returns (uint256) {\r\n        uint256 percentage = investors[_winner].currentBidPercentage;\r\n        uint256 x = SafeMath.mul(fundBalance, percentage);\r\n        uint256 y = SafeMath.div(x, 100);\r\n        winnersAmount = fundBalance - y;\r\n        investors[_winner].canBid = false;\r\n        return winnersAmount;\r\n    }\r\n\r\n    function releaseFund() public payable isManager {\r\n        require(fundBalance == jackpot, \"Contributions required\");\r\n        uint256 _winnersAmount = calculateWinnesJackpot(winner);\r\n        winner.transfer(_winnersAmount);\r\n        fundBalance = fundBalance - _winnersAmount;\r\n    }\r\n\r\n    function viewFund()\r\n        public\r\n        view\r\n        returns (\r\n            string memory _fundName,\r\n            uint256 _jackpot,\r\n            uint256 _noOfInstallments,\r\n            uint256 _noOfInvestors,\r\n            uint256 _fundBalance,\r\n            uint256 _installmentAmount,\r\n            uint256 _noOfInvestorsJoined\r\n        )\r\n    {\r\n        return (\r\n            fundName,\r\n            jackpot,\r\n            noOfInstallments,\r\n            noOfInvestors,\r\n            fundBalance,\r\n            installmentAmount,\r\n            noOfInvestorsJoined\r\n        );\r\n    }\r\n}\r\n",
  "sourcePath": "E:\\BlockChain\\0 Dapp Projects\\chitFund\\contracts\\ChitFund.sol",
  "compiler": {
    "name": "solc",
    "version": "0.6.8+commit.0bbfe453.Emscripten.clang"
  },
  "schemaVersion": "3.1.0",
  "updatedAt": "2020-06-24T18:36:36.513Z",
  "networkType": "ethereum",
  "devdoc": {
    "methods": {}
  },
  "userdoc": {
    "methods": {}
  }
}