{
  "contractName": "ChitFund",
  "abi": [
    {
      "inputs": [
        {
          "internalType": "string",
          "name": "_fundName",
          "type": "string"
        },
        {
          "internalType": "uint256",
          "name": "_installmentAmount",
          "type": "uint256"
        },
        {
          "internalType": "uint256",
          "name": "_numOfInstallments",
          "type": "uint256"
        },
        {
          "internalType": "uint256",
          "name": "_noOfMembers",
          "type": "uint256"
        }
      ],
      "stateMutability": "nonpayable",
      "type": "constructor"
    },
    {
      "inputs": [],
      "name": "currentRound",
      "outputs": [
        {
          "internalType": "uint256",
          "name": "",
          "type": "uint256"
        }
      ],
      "stateMutability": "view",
      "type": "function"
    },
    {
      "inputs": [],
      "name": "currentRoundLowestBid",
      "outputs": [
        {
          "internalType": "uint256",
          "name": "",
          "type": "uint256"
        }
      ],
      "stateMutability": "view",
      "type": "function"
    },
    {
      "inputs": [],
      "name": "fundBalance",
      "outputs": [
        {
          "internalType": "uint256",
          "name": "",
          "type": "uint256"
        }
      ],
      "stateMutability": "view",
      "type": "function"
    },
    {
      "inputs": [],
      "name": "fundName",
      "outputs": [
        {
          "internalType": "string",
          "name": "",
          "type": "string"
        }
      ],
      "stateMutability": "view",
      "type": "function"
    },
    {
      "inputs": [],
      "name": "installmentAmount",
      "outputs": [
        {
          "internalType": "uint256",
          "name": "",
          "type": "uint256"
        }
      ],
      "stateMutability": "view",
      "type": "function"
    },
    {
      "inputs": [
        {
          "internalType": "address",
          "name": "",
          "type": "address"
        }
      ],
      "name": "investors",
      "outputs": [
        {
          "internalType": "bool",
          "name": "hasJoined",
          "type": "bool"
        },
        {
          "internalType": "uint256",
          "name": "installmentCounter",
          "type": "uint256"
        },
        {
          "internalType": "bool",
          "name": "isReadyToInvest",
          "type": "bool"
        },
        {
          "internalType": "bool",
          "name": "canBid",
          "type": "bool"
        },
        {
          "internalType": "bool",
          "name": "hasWonARound",
          "type": "bool"
        }
      ],
      "stateMutability": "view",
      "type": "function"
    },
    {
      "inputs": [],
      "name": "jackpot",
      "outputs": [
        {
          "internalType": "uint256",
          "name": "",
          "type": "uint256"
        }
      ],
      "stateMutability": "view",
      "type": "function"
    },
    {
      "inputs": [],
      "name": "manager",
      "outputs": [
        {
          "internalType": "address",
          "name": "",
          "type": "address"
        }
      ],
      "stateMutability": "view",
      "type": "function"
    },
    {
      "inputs": [],
      "name": "noOfMembers",
      "outputs": [
        {
          "internalType": "uint256",
          "name": "",
          "type": "uint256"
        }
      ],
      "stateMutability": "view",
      "type": "function"
    },
    {
      "inputs": [],
      "name": "noOfMembersJoined",
      "outputs": [
        {
          "internalType": "uint256",
          "name": "",
          "type": "uint256"
        }
      ],
      "stateMutability": "view",
      "type": "function"
    },
    {
      "inputs": [],
      "name": "numOfInstallments",
      "outputs": [
        {
          "internalType": "uint256",
          "name": "",
          "type": "uint256"
        }
      ],
      "stateMutability": "view",
      "type": "function"
    },
    {
      "inputs": [],
      "name": "checkIfManager",
      "outputs": [
        {
          "internalType": "bool",
          "name": "",
          "type": "bool"
        }
      ],
      "stateMutability": "view",
      "type": "function"
    },
    {
      "inputs": [],
      "name": "joinFund",
      "outputs": [],
      "stateMutability": "nonpayable",
      "type": "function"
    },
    {
      "inputs": [],
      "name": "contribute",
      "outputs": [],
      "stateMutability": "payable",
      "type": "function"
    },
    {
      "inputs": [
        {
          "internalType": "uint256",
          "name": "_bid",
          "type": "uint256"
        }
      ],
      "name": "bidForJackpot",
      "outputs": [],
      "stateMutability": "nonpayable",
      "type": "function"
    },
    {
      "inputs": [],
      "name": "releaseFund",
      "outputs": [],
      "stateMutability": "payable",
      "type": "function"
    },
    {
      "inputs": [],
      "name": "viewFund",
      "outputs": [
        {
          "internalType": "string",
          "name": "_fundName",
          "type": "string"
        },
        {
          "internalType": "uint256",
          "name": "_jackpot",
          "type": "uint256"
        },
        {
          "internalType": "uint256",
          "name": "_numOfInstallments",
          "type": "uint256"
        },
        {
          "internalType": "uint256",
          "name": "_noOfMembers",
          "type": "uint256"
        },
        {
          "internalType": "uint256",
          "name": "_fundBalance",
          "type": "uint256"
        },
        {
          "internalType": "uint256",
          "name": "_installmentAmount",
          "type": "uint256"
        },
        {
          "internalType": "uint256",
          "name": "_noOfMembersJoined",
          "type": "uint256"
        },
        {
          "internalType": "uint256",
          "name": "_currentRound",
          "type": "uint256"
        },
        {
          "internalType": "address",
          "name": "_manager",
          "type": "address"
        },
        {
          "internalType": "uint256",
          "name": "_currentRoundLowestBid",
          "type": "uint256"
        }
      ],
      "stateMutability": "view",
      "type": "function"
    },
    {
      "inputs": [],
      "name": "viewMember",
      "outputs": [
        {
          "internalType": "bool",
          "name": "_hasJoined",
          "type": "bool"
        },
        {
          "internalType": "uint256",
          "name": "_installmentCounter",
          "type": "uint256"
        },
        {
          "internalType": "bool",
          "name": "_isReadyToInvest",
          "type": "bool"
        },
        {
          "internalType": "bool",
          "name": "_canBid",
          "type": "bool"
        },
        {
          "internalType": "bool",
          "name": "_hasWonARound",
          "type": "bool"
        }
      ],
      "stateMutability": "view",
      "type": "function"
    }
  ],
  "bytecode": "0x608060405260006008556000600960006101000a81548173ffffffffffffffffffffffffffffffffffffffff021916908373ffffffffffffffffffffffffffffffffffffffff1602179055506001600a553480156200005d57600080fd5b5060405162001d8a38038062001d8a833981810160405260808110156200008357600080fd5b8101908080516040519392919084640100000000821115620000a457600080fd5b83820191506020820185811115620000bb57600080fd5b8251866001820283011164010000000082111715620000d957600080fd5b8083526020830192505050908051906020019080838360005b838110156200010f578082015181840152602081019050620000f2565b50505050905090810190601f1680156200013d5780820380516001836020036101000a031916815260200191505b5060405260200180519060200190929190805190602001909291908051906020019092919050505083600090805190602001906200017d92919062000294565b50816002819055508060038190555033600460006101000a81548173ffffffffffffffffffffffffffffffffffffffff021916908373ffffffffffffffffffffffffffffffffffffffff160217905550670de0b6b3a76400008302600581905550620001f96005546003546200020960201b6200161d1760201c565b6001819055505050505062000343565b6000808314156200021e57600090506200028e565b60008284029050828482816200023057fe5b041462000289576040517f08c379a000000000000000000000000000000000000000000000000000000000815260040180806020018281038252602181526020018062001d696021913960400191505060405180910390fd5b809150505b92915050565b828054600181600116156101000203166002900490600052602060002090601f016020900481019282601f10620002d757805160ff191683800117855562000308565b8280016001018555821562000308579182015b8281111562000307578251825591602001919060010190620002ea565b5b5090506200031791906200031b565b5090565b6200034091905b808211156200033c57600081600090555060010162000322565b5090565b90565b611a1680620003536000396000f3fe6080604052600436106101095760003560e01c80638a19c8bc116100955780639fbfb9a0116100645780639fbfb9a014610434578063a2ff55391461045f578063b142a30414610469578063d0562e6314610564578063d7bb99ba146105bb57610109565b80638a19c8bc1461031f57806391c389701461034a57806392d72bf0146103755780639ce1413b146103a457610109565b806357cc772d116100dc57806357cc772d146101d25780636b31ee011461020d5780636f7bc9be14610238578063819959e4146102c95780638770998e146102f457610109565b8063092598381461010e5780633c06794514610139578063481c6a75146101645780634be957da146101bb575b600080fd5b34801561011a57600080fd5b506101236105c5565b6040518082815260200191505060405180910390f35b34801561014557600080fd5b5061014e6105cb565b6040518082815260200191505060405180910390f35b34801561017057600080fd5b506101796105d1565b604051808273ffffffffffffffffffffffffffffffffffffffff1673ffffffffffffffffffffffffffffffffffffffff16815260200191505060405180910390f35b3480156101c757600080fd5b506101d06105f7565b005b3480156101de57600080fd5b5061020b600480360360208110156101f557600080fd5b8101908080359060200190929190505050610879565b005b34801561021957600080fd5b50610222610aec565b6040518082815260200191505060405180910390f35b34801561024457600080fd5b506102876004803603602081101561025b57600080fd5b81019080803573ffffffffffffffffffffffffffffffffffffffff169060200190929190505050610af2565b60405180861515151581526020018581526020018415151515815260200183151515158152602001821515151581526020019550505050505060405180910390f35b3480156102d557600080fd5b506102de610b5c565b6040518082815260200191505060405180910390f35b34801561030057600080fd5b50610309610b62565b6040518082815260200191505060405180910390f35b34801561032b57600080fd5b50610334610b68565b6040518082815260200191505060405180910390f35b34801561035657600080fd5b5061035f610b6e565b6040518082815260200191505060405180910390f35b34801561038157600080fd5b5061038a610b74565b604051808215151515815260200191505060405180910390f35b3480156103b057600080fd5b506103b9610bdd565b6040518080602001828103825283818151815260200191508051906020019080838360005b838110156103f95780820151818401526020810190506103de565b50505050905090810190601f1680156104265780820380516001836020036101000a031916815260200191505b509250505060405180910390f35b34801561044057600080fd5b50610449610c7b565b6040518082815260200191505060405180910390f35b610467610c81565b005b34801561047557600080fd5b5061047e610e8f565b60405180806020018b81526020018a81526020018981526020018881526020018781526020018681526020018581526020018473ffffffffffffffffffffffffffffffffffffffff1673ffffffffffffffffffffffffffffffffffffffff16815260200183815260200182810382528c818151815260200191508051906020019080838360005b83811015610520578082015181840152602081019050610505565b50505050905090810190601f16801561054d5780820380516001836020036101000a031916815260200191505b509b50505050505050505050505060405180910390f35b34801561057057600080fd5b50610579610f97565b60405180861515151581526020018581526020018415151515815260200183151515158152602001821515151581526020019550505050505060405180910390f35b6105c3611133565b005b60065481565b60075481565b600460009054906101000a900473ffffffffffffffffffffffffffffffffffffffff1681565b60035460065410610653576040517f08c379a000000000000000000000000000000000000000000000000000000000815260040180806020018281038252604b815260200180611996604b913960600191505060405180910390fd5b600b60003373ffffffffffffffffffffffffffffffffffffffff1673ffffffffffffffffffffffffffffffffffffffff16815260200190815260200160002060000160009054906101000a900460ff16156106f9576040517f08c379a000000000000000000000000000000000000000000000000000000000815260040180806020018281038252602881526020018061196e6028913960400191505060405180910390fd5b6001600b60003373ffffffffffffffffffffffffffffffffffffffff1673ffffffffffffffffffffffffffffffffffffffff16815260200190815260200160002060000160006101000a81548160ff0219169083151502179055506001600b60003373ffffffffffffffffffffffffffffffffffffffff1673ffffffffffffffffffffffffffffffffffffffff16815260200190815260200160002060020160006101000a81548160ff0219169083151502179055506000600b60003373ffffffffffffffffffffffffffffffffffffffff1673ffffffffffffffffffffffffffffffffffffffff16815260200190815260200160002060020160016101000a81548160ff0219169083151502179055506000600b60003373ffffffffffffffffffffffffffffffffffffffff1673ffffffffffffffffffffffffffffffffffffffff16815260200190815260200160002060020160026101000a81548160ff021916908315150217905550600660008154809291906001019190505550565b600b60003373ffffffffffffffffffffffffffffffffffffffff1673ffffffffffffffffffffffffffffffffffffffff16815260200190815260200160002060020160029054906101000a900460ff161561091f576040517f08c379a00000000000000000000000000000000000000000000000000000000081526004018080602001828103825260488152602001806119266048913960600191505060405180910390fd5b60011515600b60003373ffffffffffffffffffffffffffffffffffffffff1673ffffffffffffffffffffffffffffffffffffffff16815260200190815260200160002060020160019054906101000a900460ff161515146109cb576040517f08c379a000000000000000000000000000000000000000000000000000000000815260040180806020018281038252605d81526020018061173d605d913960600191505060405180910390fd5b6000811180156109dc575060075481105b15610a8e5760006008541415610a395733600960006101000a81548173ffffffffffffffffffffffffffffffffffffffff021916908373ffffffffffffffffffffffffffffffffffffffff16021790555080600881905550610a8d565b600854811015610a8c5733600960006101000a81548173ffffffffffffffffffffffffffffffffffffffff021916908373ffffffffffffffffffffffffffffffffffffffff160217905550806008819055505b5b5b6000600b60003373ffffffffffffffffffffffffffffffffffffffff1673ffffffffffffffffffffffffffffffffffffffff16815260200190815260200160002060020160016101000a81548160ff02191690831515021790555050565b60015481565b600b6020528060005260406000206000915090508060000160009054906101000a900460ff16908060010154908060020160009054906101000a900460ff16908060020160019054906101000a900460ff16908060020160029054906101000a900460ff16905085565b60085481565b60055481565b600a5481565b60035481565b6000600460009054906101000a900473ffffffffffffffffffffffffffffffffffffffff1673ffffffffffffffffffffffffffffffffffffffff163373ffffffffffffffffffffffffffffffffffffffff161415610bd55760019050610bda565b600090505b90565b60008054600181600116156101000203166002900480601f016020809104026020016040519081016040528092919081815260200182805460018160011615610100020316600290048015610c735780601f10610c4857610100808354040283529160200191610c73565b820191906000526020600020905b815481529060010190602001808311610c5657829003601f168201915b505050505081565b60025481565b600460009054906101000a900473ffffffffffffffffffffffffffffffffffffffff1673ffffffffffffffffffffffffffffffffffffffff163373ffffffffffffffffffffffffffffffffffffffff1614610d27576040517f08c379a00000000000000000000000000000000000000000000000000000000081526004018080602001828103825260298152602001806116a46029913960400191505060405180910390fd5b6001546007541015610d84576040517f08c379a00000000000000000000000000000000000000000000000000000000081526004018080602001828103825260588152602001806118526058913960600191505060405180910390fd5b600960009054906101000a900473ffffffffffffffffffffffffffffffffffffffff1673ffffffffffffffffffffffffffffffffffffffff166108fc6008549081150290604051600060405180830381858888f19350505050158015610dee573d6000803e3d6000fd5b506001600b6000600960009054906101000a900473ffffffffffffffffffffffffffffffffffffffff1673ffffffffffffffffffffffffffffffffffffffff1673ffffffffffffffffffffffffffffffffffffffff16815260200190815260200160002060020160026101000a81548160ff021916908315150217905550600854600754036007819055506001600a5401600a819055506000600881905550565b6060600080600080600080600080600080600154600254600354600754600554600654600a54600460009054906101000a900473ffffffffffffffffffffffffffffffffffffffff16600854898054600181600116156101000203166002900480601f016020809104026020016040519081016040528092919081815260200182805460018160011615610100020316600290048015610f705780601f10610f4557610100808354040283529160200191610f70565b820191906000526020600020905b815481529060010190602001808311610f5357829003601f168201915b50505050509950995099509950995099509950995099509950995090919293949596979899565b6000806000806000600b60003373ffffffffffffffffffffffffffffffffffffffff1673ffffffffffffffffffffffffffffffffffffffff16815260200190815260200160002060000160009054906101000a900460ff16600b60003373ffffffffffffffffffffffffffffffffffffffff1673ffffffffffffffffffffffffffffffffffffffff16815260200190815260200160002060010154600b60003373ffffffffffffffffffffffffffffffffffffffff1673ffffffffffffffffffffffffffffffffffffffff16815260200190815260200160002060020160009054906101000a900460ff16600b60003373ffffffffffffffffffffffffffffffffffffffff1673ffffffffffffffffffffffffffffffffffffffff16815260200190815260200160002060020160019054906101000a900460ff16600b60003373ffffffffffffffffffffffffffffffffffffffff1673ffffffffffffffffffffffffffffffffffffffff16815260200190815260200160002060020160029054906101000a900460ff16945094509450945094509091929394565b600554341461118d576040517f08c379a000000000000000000000000000000000000000000000000000000000815260040180806020018281038252603881526020018061181a6038913960400191505060405180910390fd5b600b60003373ffffffffffffffffffffffffffffffffffffffff1673ffffffffffffffffffffffffffffffffffffffff16815260200190815260200160002060000160009054906101000a900460ff16611232576040517f08c379a00000000000000000000000000000000000000000000000000000000081526004018080602001828103825260248152602001806118e16024913960400191505060405180910390fd5b600b60003373ffffffffffffffffffffffffffffffffffffffff1673ffffffffffffffffffffffffffffffffffffffff16815260200190815260200160002060020160009054906101000a900460ff166112d7576040517f08c379a00000000000000000000000000000000000000000000000000000000081526004018080602001828103825260708152602001806116cd6070913960800191505060405180910390fd5b600a54600b60003373ffffffffffffffffffffffffffffffffffffffff1673ffffffffffffffffffffffffffffffffffffffff1681526020019081526020016000206001015410611373576040517f08c379a00000000000000000000000000000000000000000000000000000000081526004018080602001828103825260708152602001806116cd6070913960800191505060405180910390fd5b600154600754106113cf576040517f08c379a000000000000000000000000000000000000000000000000000000000815260040180806020018281038252608081526020018061179a6080913960800191505060405180910390fd5b600254600b60003373ffffffffffffffffffffffffffffffffffffffff1673ffffffffffffffffffffffffffffffffffffffff168152602001908152602001600020600101541061146b576040517f08c379a00000000000000000000000000000000000000000000000000000000081526004018080602001828103825260378152602001806118aa6037913960400191505060405180910390fd5b6001600b60003373ffffffffffffffffffffffffffffffffffffffff1673ffffffffffffffffffffffffffffffffffffffff1681526020019081526020016000206001015401600b60003373ffffffffffffffffffffffffffffffffffffffff1673ffffffffffffffffffffffffffffffffffffffff168152602001908152602001600020600101819055506000600b60003373ffffffffffffffffffffffffffffffffffffffff1673ffffffffffffffffffffffffffffffffffffffff16815260200190815260200160002060020160006101000a81548160ff02191690831515021790555060011515600b60003373ffffffffffffffffffffffffffffffffffffffff1673ffffffffffffffffffffffffffffffffffffffff16815260200190815260200160002060020160029054906101000a900460ff16151515141561160b576001600b60003373ffffffffffffffffffffffffffffffffffffffff1673ffffffffffffffffffffffffffffffffffffffff16815260200190815260200160002060020160016101000a81548160ff0219169083151502179055505b34600760008282540192505081905550565b600080831415611630576000905061169d565b600082840290508284828161164157fe5b0414611698576040517f08c379a00000000000000000000000000000000000000000000000000000000081526004018080602001828103825260218152602001806119056021913960400191505060405180910390fd5b809150505b9291505056fe4f6e6c7920746865206d616e616765722063616e2061636365737320746869732066756e6374696f6e596f75206861766520616c726561647920636f6e747269627574656420746f207468697320726f756e642c20796f752063616e6e6f7420696e7665737420756e74696c20616674657220746865206a61636b706f74206f66207468697320726f756e6420697320616e6e6f756e636564596f752063616e6e6f742062696420756e74696c20796f75206861766520636f6e747269627574656420666f72207468697320726f756e642c20616e6420796f75206d6179206f6e6c7920626964206f6e63652070657220726f756e6446756e642069732066756c6c792066756e64656420666f72207468697320726f756e642e20596f752063616e6e6f7420636f6e7472696275746520756e74696c207468652066756e64732068617665206265656e2064697370757273656420746f207468652077696e6e696e6720626964646572207468697320726f756e642e537570706c69656420616d6f756e7420697320646966666572656e742066726f6d2074686520496e7374616c6c6d656e7420616d6f756e7443616e6e6f742072656c656173652066756e647320666f72207468697320726f756e6420756e74696c20616c6c20696e766573746f7220636f6e747269627574696f6e732068617665206265656e2072656365697665642e596f75206861766520616c7265616479207061696420616c6c2074686520696e7374616c6c6d656e747320696e20746869732066756e64596f7520617265206e6f742070617274206f66207468652063757272656e742066756e64536166654d6174683a206d756c7469706c69636174696f6e206f766572666c6f77596f75207765726520612077696e6e657220696e20612070726576696f757320726f756e642e20596f7520617265206e6f206c6f6e67657220616c6c6f77656420746f206269642e596f752061726520616c72656164792070617274206f66207468652063757272656e742066756e645468652066756e642068617320616c7265616479207265616368656420697473206d6178696d756d20696e766573746f72732e20506c656173652074727920616e6f746865722066756e64a26469706673582212204914162390c8fd142ca9dd615cc60064e28216b495e9a990d1aba8ef2a86a8e464736f6c63430006080033536166654d6174683a206d756c7469706c69636174696f6e206f766572666c6f77",
  "immutableReferences": {},
  "source": "// SPDX-License-Identifier: MIT\r\n\r\npragma solidity ^0.6.8;\r\n// import \"../node_modules/@openzeppelin/contracts/math/SafeMath.sol\";\r\n\r\nimport \"@openzeppelin/contracts/math/SafeMath.sol\";\r\nimport \"./Capitalization.sol\";\r\n\r\ncontract ChitFund {\r\n    using SafeMath for uint256;\r\n    \r\n    // These are constants once the fund is created\r\n    string public fundName;\r\n    uint256 public jackpot;\r\n    uint256 public numOfInstallments;\r\n    uint256 public noOfMembers;\r\n    address public manager;\r\n    uint256 public installmentAmount;\r\n    \r\n    // This will be incremented but then remain throughout all of the subsequent rounds of bidding\r\n    uint256 public noOfMembersJoined;\r\n    \r\n    // These will change between rounds\r\n    uint256 public fundBalance;\r\n    uint256 public currentRoundLowestBid = 0; //TODO maybe make private?, want public now for debugging\r\n    address payable private winnerThisRound = address(0);\r\n    uint256 public currentRound = 1;\r\n\r\n    struct Member {\r\n        bool hasJoined;\r\n        uint256 installmentCounter;\r\n        bool isReadyToInvest;\r\n        bool canBid;\r\n        bool hasWonARound;\r\n    }\r\n\r\n    mapping(address => Member) public investors;\r\n\r\n    constructor(\r\n        string memory _fundName,\r\n        uint256 _installmentAmount,\r\n        uint256 _numOfInstallments,\r\n        uint256 _noOfMembers\r\n    ) public {\r\n        fundName = _fundName;\r\n        numOfInstallments = _numOfInstallments;\r\n        noOfMembers = _noOfMembers;\r\n        manager = msg.sender;  // TODO determine who message.sender is on contract deployment, also consider adding this to constructor to make it configurable?\r\n        installmentAmount = _installmentAmount * 1e18;  // 1e18 = 1eth, or 10000000000000000 wei\r\n        jackpot = SafeMath.mul(installmentAmount, noOfMembers);\r\n    }\r\n\r\n    modifier isManager() {\r\n        require(msg.sender == manager, \"Only the manager can access this function\");\r\n        _;\r\n    }\r\n\r\n    function checkIfManager() public view returns (bool) {\r\n        if(msg.sender == manager){\r\n            return true;\r\n        } else {\r\n            return false;\r\n        }\r\n    }\r\n\r\n    function joinFund() public {\r\n        require(\r\n            noOfMembersJoined < noOfMembers,\r\n            \"The fund has already reached its maximum investors. Please try another fund\"\r\n        );\r\n        require(\r\n            !investors[msg.sender].hasJoined, \"You are already part of the current fund\"\r\n        );\r\n        investors[msg.sender].hasJoined = true;\r\n        investors[msg.sender].isReadyToInvest = true;\r\n        investors[msg.sender].canBid = false;\r\n        investors[msg.sender].hasWonARound = false;\r\n        noOfMembersJoined++;\r\n    }\r\n\r\n    function contribute() public payable {\r\n        require(\r\n            msg.value == installmentAmount,\r\n            \"Supplied amount is different from the Installment amount\"\r\n        );\r\n        require(\r\n            investors[msg.sender].hasJoined,\r\n            \"You are not part of the current fund\"\r\n        );\r\n        require(\r\n            investors[msg.sender].isReadyToInvest,\r\n            \"You have already contributed to this round, you cannot invest until after the jackpot of this round is announced\"\r\n        );\r\n        require( investors[msg.sender].installmentCounter < currentRound,\r\n            \"You have already contributed to this round, you cannot invest until after the jackpot of this round is announced\"\r\n        );\r\n        require(fundBalance < jackpot, \"Fund is fully funded for this round. You cannot contribute until the funds have been dispursed to the winning bidder this round.\");\r\n        require(\r\n            investors[msg.sender].installmentCounter < numOfInstallments,\r\n            \"You have already paid all the installments in this fund\"\r\n        );\r\n        investors[msg.sender].installmentCounter = investors[msg.sender].installmentCounter + 1;\r\n        investors[msg.sender].isReadyToInvest = false; // has contributed, cannot contribute again until the round is over\r\n        if (!investors[msg.sender].hasWonARound == true) {\r\n            investors[msg.sender].canBid = true;\r\n        }\r\n        fundBalance += msg.value;\r\n    }\r\n\r\n    function bidForJackpot(uint256 _bid) public {\r\n        require(\r\n            !investors[msg.sender].hasWonARound,\r\n            \"You were a winner in a previous round. You are no longer allowed to bid.\"\r\n        );\r\n        require(\r\n            investors[msg.sender].canBid == true, \"You cannot bid until you have contributed for this round, and you may only bid once per round\"\r\n        );\r\n        if (_bid > 0 && _bid < fundBalance) { // bids must be less than the total balance of the fund.\r\n            if( currentRoundLowestBid == 0) {\r\n                winnerThisRound = msg.sender;\r\n                currentRoundLowestBid = _bid;\r\n            } else if (_bid < currentRoundLowestBid){\r\n                winnerThisRound = msg.sender;\r\n                currentRoundLowestBid = _bid;\r\n            }\r\n        }\r\n        investors[msg.sender].canBid = false;\r\n    }\r\n\r\n\r\n    function releaseFund() public payable isManager {\r\n        require(fundBalance >= jackpot, \"Cannot release funds for this round until all investor contributions have been received.\");        \r\n        winnerThisRound.transfer(currentRoundLowestBid);  //TODO  look up transfer function later\r\n        investors[winnerThisRound].hasWonARound = true;\r\n        fundBalance = fundBalance - currentRoundLowestBid;\r\n        currentRound = currentRound + 1;\r\n        currentRoundLowestBid = 0;\r\n    }\r\n\r\n    function viewFund()\r\n        public\r\n        view\r\n        returns (\r\n            string memory _fundName,\r\n            uint256 _jackpot,\r\n            uint256 _numOfInstallments,\r\n            uint256 _noOfMembers,\r\n            uint256 _fundBalance,\r\n            uint256 _installmentAmount,\r\n            uint256 _noOfMembersJoined,\r\n            uint256 _currentRound,\r\n            address _manager,\r\n            uint256 _currentRoundLowestBid\r\n        )\r\n    {\r\n        return (\r\n            fundName,\r\n            jackpot,\r\n            numOfInstallments,\r\n            noOfMembers,\r\n            fundBalance,\r\n            installmentAmount,\r\n            noOfMembersJoined,\r\n            currentRound,\r\n            manager,\r\n            currentRoundLowestBid\r\n        );\r\n    }\r\n\r\n    function viewMember()\r\n        public\r\n        view\r\n        returns (\r\n            bool _hasJoined,\r\n            uint256 _installmentCounter,\r\n            bool _isReadyToInvest,\r\n            bool _canBid,\r\n            bool _hasWonARound\r\n        )\r\n    {\r\n        return (\r\n            investors[msg.sender].hasJoined,\r\n            investors[msg.sender].installmentCounter,\r\n            investors[msg.sender].isReadyToInvest,\r\n            investors[msg.sender].canBid,\r\n            investors[msg.sender].hasWonARound\r\n        );\r\n    }\r\n\r\n\r\n    // Some features to consider for later if time allows\r\n    //TODO make a function to destroy fund\r\n    //TODO make a function to kick member from fund, update variables to allow someone else to take their place\r\n    //TODO make a function to reset the fund back to 0 assuming all of the installments and jackpots have been paid.\r\n    //TODO make a function to return any funds left over after the last round to all members equally?\r\n\r\n    //TODO be able to subsitute member for another if a user gets kicked before taking a distribution\r\n    //\r\n}\r\n",
  "sourcePath": "C:\\Users\\aaols\\ICS-690-ETH\\chitFund\\contracts\\ChitFund.sol",
  "compiler": {
    "name": "solc",
    "version": "0.6.8+commit.0bbfe453.Emscripten.clang"
  },
  "schemaVersion": "3.4.4",
  "updatedAt": "2022-03-30T00:55:16.603Z",
  "devdoc": {
    "methods": {}
  },
  "userdoc": {
    "methods": {}
  }
}