{
  "contractName": "ChitFundFactory",
  "abi": [
    {
      "anonymous": false,
      "inputs": [
        {
          "indexed": false,
          "internalType": "uint256",
          "name": "count",
          "type": "uint256"
        },
        {
          "indexed": false,
          "internalType": "address",
          "name": "manager",
          "type": "address"
        },
        {
          "indexed": false,
          "internalType": "contract ChitFund",
          "name": "chitfund",
          "type": "address"
        }
      ],
      "name": "launchedChitfunds",
      "type": "event"
    },
    {
      "inputs": [],
      "name": "ChitfundCount",
      "outputs": [
        {
          "internalType": "uint256",
          "name": "",
          "type": "uint256"
        }
      ],
      "stateMutability": "view",
      "type": "function",
      "constant": true
    },
    {
      "inputs": [
        {
          "internalType": "address",
          "name": "",
          "type": "address"
        }
      ],
      "name": "chitfunds",
      "outputs": [
        {
          "internalType": "contract ChitFund",
          "name": "",
          "type": "address"
        }
      ],
      "stateMutability": "view",
      "type": "function",
      "constant": true
    },
    {
      "inputs": [
        {
          "internalType": "uint256",
          "name": "",
          "type": "uint256"
        }
      ],
      "name": "deployedFunds",
      "outputs": [
        {
          "internalType": "contract ChitFund",
          "name": "",
          "type": "address"
        }
      ],
      "stateMutability": "view",
      "type": "function",
      "constant": true
    },
    {
      "inputs": [
        {
          "internalType": "string",
          "name": "name",
          "type": "string"
        },
        {
          "internalType": "uint256",
          "name": "amount",
          "type": "uint256"
        },
        {
          "internalType": "uint256",
          "name": "installments",
          "type": "uint256"
        },
        {
          "internalType": "uint256",
          "name": "participants",
          "type": "uint256"
        }
      ],
      "name": "createFund",
      "outputs": [],
      "stateMutability": "nonpayable",
      "type": "function"
    }
  ],
  "bytecode": "0x608060405234801561001057600080fd5b5061228f806100206000396000f3fe608060405234801561001057600080fd5b506004361061004c5760003560e01c8063366aad88146100515780639a068bd61461006f578063e70f3f8f146100dd578063f90d162114610161575b600080fd5b61005961023a565b6040518082815260200191505060405180910390f35b61009b6004803603602081101561008557600080fd5b8101908080359060200190929190505050610240565b604051808273ffffffffffffffffffffffffffffffffffffffff1673ffffffffffffffffffffffffffffffffffffffff16815260200191505060405180910390f35b61011f600480360360208110156100f357600080fd5b81019080803573ffffffffffffffffffffffffffffffffffffffff16906020019092919050505061027c565b604051808273ffffffffffffffffffffffffffffffffffffffff1673ffffffffffffffffffffffffffffffffffffffff16815260200191505060405180910390f35b6102386004803603608081101561017757600080fd5b810190808035906020019064010000000081111561019457600080fd5b8201836020820111156101a657600080fd5b803590602001918460018302840111640100000000831117156101c857600080fd5b91908080601f016020809104026020016040519081016040528093929190818152602001838380828437600081840152601f19601f8201169050808301925050505050505091929192908035906020019092919080359060200190929190803590602001909291905050506102af565b005b60015481565b6000818154811061024d57fe5b906000526020600020016000915054906101000a900473ffffffffffffffffffffffffffffffffffffffff1681565b60026020528060005260406000206000915054906101000a900473ffffffffffffffffffffffffffffffffffffffff1681565b600083116102bc57600080fd5b600082116102c957600080fd5b600081116102d657600080fd5b6000848484846040516102e890610526565b8080602001858152602001848152602001838152602001828103825286818151815260200191508051906020019080838360005b8381101561033757808201518184015260208101905061031c565b50505050905090810190601f1680156103645780820380516001836020036101000a031916815260200191505b5095505050505050604051809103906000f080158015610388573d6000803e3d6000fd5b5090506000819080600181540180825580915050600190039060005260206000200160009091909190916101000a81548173ffffffffffffffffffffffffffffffffffffffff021916908373ffffffffffffffffffffffffffffffffffffffff16021790555060016000815480929190600101919050555080600260003373ffffffffffffffffffffffffffffffffffffffff1673ffffffffffffffffffffffffffffffffffffffff16815260200190815260200160002060006101000a81548173ffffffffffffffffffffffffffffffffffffffff021916908373ffffffffffffffffffffffffffffffffffffffff1602179055507f9822cd48e425f88779334513865deee36675952fbfba9c0f6605b98ea2a0d13e6001543383604051808481526020018373ffffffffffffffffffffffffffffffffffffffff1673ffffffffffffffffffffffffffffffffffffffff1681526020018273ffffffffffffffffffffffffffffffffffffffff1673ffffffffffffffffffffffffffffffffffffffff168152602001935050505060405180910390a15050505050565b611d26806105348339019056fe608060405260006008556000600960006101000a81548173ffffffffffffffffffffffffffffffffffffffff021916908373ffffffffffffffffffffffffffffffffffffffff1602179055506001600a553480156200005d57600080fd5b5060405162001d2638038062001d26833981810160405260808110156200008357600080fd5b8101908080516040519392919084640100000000821115620000a457600080fd5b83820191506020820185811115620000bb57600080fd5b8251866001820283011164010000000082111715620000d957600080fd5b8083526020830192505050908051906020019080838360005b838110156200010f578082015181840152602081019050620000f2565b50505050905090810190601f1680156200013d5780820380516001836020036101000a031916815260200191505b5060405260200180519060200190929190805190602001909291908051906020019092919050505083600090805190602001906200017d92919062000294565b50816002819055508060038190555033600460006101000a81548173ffffffffffffffffffffffffffffffffffffffff021916908373ffffffffffffffffffffffffffffffffffffffff160217905550670de0b6b3a76400008302600581905550620001f96005546003546200020960201b620015b91760201c565b6001819055505050505062000343565b6000808314156200021e57600090506200028e565b60008284029050828482816200023057fe5b041462000289576040517f08c379a000000000000000000000000000000000000000000000000000000000815260040180806020018281038252602181526020018062001d056021913960400191505060405180910390fd5b809150505b92915050565b828054600181600116156101000203166002900490600052602060002090601f016020900481019282601f10620002d757805160ff191683800117855562000308565b8280016001018555821562000308579182015b8281111562000307578251825591602001919060010190620002ea565b5b5090506200031791906200031b565b5090565b6200034091905b808211156200033c57600081600090555060010162000322565b5090565b90565b6119b280620003536000396000f3fe6080604052600436106101095760003560e01c80638a19c8bc116100955780639fbfb9a0116100645780639fbfb9a014610434578063a2ff55391461045f578063b142a30414610469578063d7bb99ba14610564578063daddd98d1461056e57610109565b80638a19c8bc1461031f5780639075825b1461034a57806392d72bf0146103755780639ce1413b146103a457610109565b806357cc772d116100dc57806357cc772d146101d25780636b31ee011461020d5780636f7bc9be14610238578063819959e4146102c95780638770998e146102f457610109565b80632367df9b1461010e5780633c06794514610139578063481c6a75146101645780634be957da146101bb575b600080fd5b34801561011a57600080fd5b506101236105c5565b6040518082815260200191505060405180910390f35b34801561014557600080fd5b5061014e6105cb565b6040518082815260200191505060405180910390f35b34801561017057600080fd5b506101796105d1565b604051808273ffffffffffffffffffffffffffffffffffffffff1673ffffffffffffffffffffffffffffffffffffffff16815260200191505060405180910390f35b3480156101c757600080fd5b506101d06105f7565b005b3480156101de57600080fd5b5061020b600480360360208110156101f557600080fd5b8101908080359060200190929190505050610879565b005b34801561021957600080fd5b50610222610a88565b6040518082815260200191505060405180910390f35b34801561024457600080fd5b506102876004803603602081101561025b57600080fd5b81019080803573ffffffffffffffffffffffffffffffffffffffff169060200190929190505050610a8e565b60405180861515151581526020018581526020018415151515815260200183151515158152602001821515151581526020019550505050505060405180910390f35b3480156102d557600080fd5b506102de610af8565b6040518082815260200191505060405180910390f35b34801561030057600080fd5b50610309610afe565b6040518082815260200191505060405180910390f35b34801561032b57600080fd5b50610334610b04565b6040518082815260200191505060405180910390f35b34801561035657600080fd5b5061035f610b0a565b6040518082815260200191505060405180910390f35b34801561038157600080fd5b5061038a610b10565b604051808215151515815260200191505060405180910390f35b3480156103b057600080fd5b506103b9610b79565b6040518080602001828103825283818151815260200191508051906020019080838360005b838110156103f95780820151818401526020810190506103de565b50505050905090810190601f1680156104265780820380516001836020036101000a031916815260200191505b509250505060405180910390f35b34801561044057600080fd5b50610449610c17565b6040518082815260200191505060405180910390f35b610467610c1d565b005b34801561047557600080fd5b5061047e610e2b565b60405180806020018b81526020018a81526020018981526020018881526020018781526020018681526020018581526020018473ffffffffffffffffffffffffffffffffffffffff1673ffffffffffffffffffffffffffffffffffffffff16815260200183815260200182810382528c818151815260200191508051906020019080838360005b83811015610520578082015181840152602081019050610505565b50505050905090810190601f16801561054d5780820380516001836020036101000a031916815260200191505b509b50505050505050505050505060405180910390f35b61056c610f33565b005b34801561057a57600080fd5b5061058361141d565b60405180861515151581526020018581526020018415151515815260200183151515158152602001821515151581526020019550505050505060405180910390f35b60065481565b60075481565b600460009054906101000a900473ffffffffffffffffffffffffffffffffffffffff1681565b60035460065410610653576040517f08c379a000000000000000000000000000000000000000000000000000000000815260040180806020018281038252604b815260200180611932604b913960600191505060405180910390fd5b600b60003373ffffffffffffffffffffffffffffffffffffffff1673ffffffffffffffffffffffffffffffffffffffff16815260200190815260200160002060000160009054906101000a900460ff16156106f9576040517f08c379a000000000000000000000000000000000000000000000000000000000815260040180806020018281038252602881526020018061190a6028913960400191505060405180910390fd5b6001600b60003373ffffffffffffffffffffffffffffffffffffffff1673ffffffffffffffffffffffffffffffffffffffff16815260200190815260200160002060000160006101000a81548160ff0219169083151502179055506001600b60003373ffffffffffffffffffffffffffffffffffffffff1673ffffffffffffffffffffffffffffffffffffffff16815260200190815260200160002060020160006101000a81548160ff0219169083151502179055506000600b60003373ffffffffffffffffffffffffffffffffffffffff1673ffffffffffffffffffffffffffffffffffffffff16815260200190815260200160002060020160016101000a81548160ff0219169083151502179055506000600b60003373ffffffffffffffffffffffffffffffffffffffff1673ffffffffffffffffffffffffffffffffffffffff16815260200190815260200160002060020160026101000a81548160ff021916908315150217905550600660008154809291906001019190505550565b600b60003373ffffffffffffffffffffffffffffffffffffffff1673ffffffffffffffffffffffffffffffffffffffff16815260200190815260200160002060020160029054906101000a900460ff161561091f576040517f08c379a00000000000000000000000000000000000000000000000000000000081526004018080602001828103825260488152602001806118c26048913960600191505060405180910390fd5b60011515600b60003373ffffffffffffffffffffffffffffffffffffffff1673ffffffffffffffffffffffffffffffffffffffff16815260200190815260200160002060020160019054906101000a900460ff161515146109cb576040517f08c379a000000000000000000000000000000000000000000000000000000000815260040180806020018281038252605d8152602001806116d9605d913960600191505060405180910390fd5b6000811180156109dc575060075481105b15610a2a5733600960006101000a81548173ffffffffffffffffffffffffffffffffffffffff021916908373ffffffffffffffffffffffffffffffffffffffff160217905550806008819055505b6000600b60003373ffffffffffffffffffffffffffffffffffffffff1673ffffffffffffffffffffffffffffffffffffffff16815260200190815260200160002060020160016101000a81548160ff02191690831515021790555050565b60015481565b600b6020528060005260406000206000915090508060000160009054906101000a900460ff16908060010154908060020160009054906101000a900460ff16908060020160019054906101000a900460ff16908060020160029054906101000a900460ff16905085565b60085481565b60055481565b600a5481565b60035481565b6000600460009054906101000a900473ffffffffffffffffffffffffffffffffffffffff1673ffffffffffffffffffffffffffffffffffffffff163373ffffffffffffffffffffffffffffffffffffffff161415610b715760019050610b76565b600090505b90565b60008054600181600116156101000203166002900480601f016020809104026020016040519081016040528092919081815260200182805460018160011615610100020316600290048015610c0f5780601f10610be457610100808354040283529160200191610c0f565b820191906000526020600020905b815481529060010190602001808311610bf257829003601f168201915b505050505081565b60025481565b600460009054906101000a900473ffffffffffffffffffffffffffffffffffffffff1673ffffffffffffffffffffffffffffffffffffffff163373ffffffffffffffffffffffffffffffffffffffff1614610cc3576040517f08c379a00000000000000000000000000000000000000000000000000000000081526004018080602001828103825260298152602001806116406029913960400191505060405180910390fd5b6001546007541015610d20576040517f08c379a00000000000000000000000000000000000000000000000000000000081526004018080602001828103825260588152602001806117ee6058913960600191505060405180910390fd5b600960009054906101000a900473ffffffffffffffffffffffffffffffffffffffff1673ffffffffffffffffffffffffffffffffffffffff166108fc6008549081150290604051600060405180830381858888f19350505050158015610d8a573d6000803e3d6000fd5b506001600b6000600960009054906101000a900473ffffffffffffffffffffffffffffffffffffffff1673ffffffffffffffffffffffffffffffffffffffff1673ffffffffffffffffffffffffffffffffffffffff16815260200190815260200160002060020160026101000a81548160ff021916908315150217905550600854600754036007819055506001600a5401600a819055506000600881905550565b6060600080600080600080600080600080600154600254600354600754600554600654600a54600460009054906101000a900473ffffffffffffffffffffffffffffffffffffffff16600854898054600181600116156101000203166002900480601f016020809104026020016040519081016040528092919081815260200182805460018160011615610100020316600290048015610f0c5780601f10610ee157610100808354040283529160200191610f0c565b820191906000526020600020905b815481529060010190602001808311610eef57829003601f168201915b50505050509950995099509950995099509950995099509950995090919293949596979899565b6005543414610f8d576040517f08c379a00000000000000000000000000000000000000000000000000000000081526004018080602001828103825260388152602001806117b66038913960400191505060405180910390fd5b600b60003373ffffffffffffffffffffffffffffffffffffffff1673ffffffffffffffffffffffffffffffffffffffff16815260200190815260200160002060000160009054906101000a900460ff16611032576040517f08c379a000000000000000000000000000000000000000000000000000000000815260040180806020018281038252602481526020018061187d6024913960400191505060405180910390fd5b600b60003373ffffffffffffffffffffffffffffffffffffffff1673ffffffffffffffffffffffffffffffffffffffff16815260200190815260200160002060020160009054906101000a900460ff166110d7576040517f08c379a00000000000000000000000000000000000000000000000000000000081526004018080602001828103825260708152602001806116696070913960800191505060405180910390fd5b600a54600b60003373ffffffffffffffffffffffffffffffffffffffff1673ffffffffffffffffffffffffffffffffffffffff1681526020019081526020016000206001015410611173576040517f08c379a00000000000000000000000000000000000000000000000000000000081526004018080602001828103825260708152602001806116696070913960800191505060405180910390fd5b600154600754106111cf576040517f08c379a00000000000000000000000000000000000000000000000000000000081526004018080602001828103825260808152602001806117366080913960800191505060405180910390fd5b600254600b60003373ffffffffffffffffffffffffffffffffffffffff1673ffffffffffffffffffffffffffffffffffffffff168152602001908152602001600020600101541061126b576040517f08c379a00000000000000000000000000000000000000000000000000000000081526004018080602001828103825260378152602001806118466037913960400191505060405180910390fd5b6001600b60003373ffffffffffffffffffffffffffffffffffffffff1673ffffffffffffffffffffffffffffffffffffffff1681526020019081526020016000206001015401600b60003373ffffffffffffffffffffffffffffffffffffffff1673ffffffffffffffffffffffffffffffffffffffff168152602001908152602001600020600101819055506000600b60003373ffffffffffffffffffffffffffffffffffffffff1673ffffffffffffffffffffffffffffffffffffffff16815260200190815260200160002060020160006101000a81548160ff02191690831515021790555060011515600b60003373ffffffffffffffffffffffffffffffffffffffff1673ffffffffffffffffffffffffffffffffffffffff16815260200190815260200160002060020160029054906101000a900460ff16151515141561140b576001600b60003373ffffffffffffffffffffffffffffffffffffffff1673ffffffffffffffffffffffffffffffffffffffff16815260200190815260200160002060020160016101000a81548160ff0219169083151502179055505b34600760008282540192505081905550565b6000806000806000600b60003373ffffffffffffffffffffffffffffffffffffffff1673ffffffffffffffffffffffffffffffffffffffff16815260200190815260200160002060000160009054906101000a900460ff16600b60003373ffffffffffffffffffffffffffffffffffffffff1673ffffffffffffffffffffffffffffffffffffffff16815260200190815260200160002060010154600b60003373ffffffffffffffffffffffffffffffffffffffff1673ffffffffffffffffffffffffffffffffffffffff16815260200190815260200160002060020160009054906101000a900460ff16600b60003373ffffffffffffffffffffffffffffffffffffffff1673ffffffffffffffffffffffffffffffffffffffff16815260200190815260200160002060020160019054906101000a900460ff16600b60003373ffffffffffffffffffffffffffffffffffffffff1673ffffffffffffffffffffffffffffffffffffffff16815260200190815260200160002060020160029054906101000a900460ff16945094509450945094509091929394565b6000808314156115cc5760009050611639565b60008284029050828482816115dd57fe5b0414611634576040517f08c379a00000000000000000000000000000000000000000000000000000000081526004018080602001828103825260218152602001806118a16021913960400191505060405180910390fd5b809150505b9291505056fe4f6e6c7920746865206d616e616765722063616e2061636365737320746869732066756e6374696f6e596f75206861766520616c726561647920636f6e747269627574656420746f207468697320726f756e642c20796f752063616e6e6f7420696e7665737420756e74696c20616674657220746865206a61636b706f74206f66207468697320726f756e6420697320616e6e6f756e636564596f752063616e6e6f742062696420756e74696c20796f75206861766520636f6e747269627574656420666f72207468697320726f756e642c20616e6420796f75206d6179206f6e6c7920626964206f6e63652070657220726f756e6446756e642069732066756c6c792066756e64656420666f72207468697320726f756e642e20596f752063616e6e6f7420636f6e7472696275746520756e74696c207468652066756e64732068617665206265656e2064697370757273656420746f207468652077696e6e696e6720626964646572207468697320726f756e642e537570706c69656420616d6f756e7420697320646966666572656e742066726f6d2074686520496e7374616c6c6d656e7420616d6f756e7443616e6e6f742072656c656173652066756e647320666f72207468697320726f756e6420756e74696c20616c6c20696e766573746f7220636f6e747269627574696f6e732068617665206265656e2072656365697665642e596f75206861766520616c7265616479207061696420616c6c2074686520696e7374616c6c6d656e747320696e20746869732066756e64596f7520617265206e6f742070617274206f66207468652063757272656e742066756e64536166654d6174683a206d756c7469706c69636174696f6e206f766572666c6f77596f75207765726520612077696e6e657220696e20612070726576696f757320726f756e642e20596f7520617265206e6f206c6f6e67657220616c6c6f77656420746f206269642e596f752061726520616c72656164792070617274206f66207468652063757272656e742066756e645468652066756e642068617320616c7265616479207265616368656420697473206d6178696d756d20696e766573746f72732e20506c656173652074727920616e6f746865722066756e64a2646970667358221220e4a1c7f5f001da9dd090b6cd87762395dbd45883c3ef30527cc8c0992b36990c64736f6c63430006080033536166654d6174683a206d756c7469706c69636174696f6e206f766572666c6f77a26469706673582212201ca0bee8b16033116d4b252871c010521a994b9320ee834eb3f326e584f98cc664736f6c63430006080033",
  "immutableReferences": {},
  "source": "// SPDX-License-Identifier: MIT\r\npragma solidity ^0.6.8;\r\n\r\nimport \"./ChitFund.sol\";\r\n\r\ncontract ChitFundFactory {\r\n    ChitFund[] public deployedFunds;\r\n    uint256 public ChitfundCount;\r\n\r\n    mapping(address => ChitFund) public chitfunds;\r\n\r\n    event launchedChitfunds(uint256 count, address manager, ChitFund chitfund);\r\n\r\n    function createFund(\r\n        string memory name,\r\n        uint256 amount,\r\n        uint256 installments,\r\n        uint256 participants\r\n    ) public {\r\n        require(amount > 0);\r\n        require(installments > 0);\r\n        require(participants > 0);\r\n        ChitFund newFund = new ChitFund(\r\n            name,\r\n            amount,\r\n            installments,\r\n            participants\r\n        );\r\n        deployedFunds.push(newFund);\r\n        ChitfundCount++;\r\n        chitfunds[msg.sender] = newFund;\r\n        emit launchedChitfunds(ChitfundCount, msg.sender, newFund);\r\n    }\r\n}\r\n",
  "sourcePath": "C:\\Users\\aaols\\ICS-690-ETH\\chitFund\\contracts\\ChitFundFactory.sol",
  "compiler": {
    "name": "solc",
    "version": "0.6.8+commit.0bbfe453.Emscripten.clang"
  },
  "schemaVersion": "3.4.4",
  "updatedAt": "2022-02-15T19:06:57.838Z",
  "networkType": "ethereum",
  "devdoc": {
    "methods": {}
  },
  "userdoc": {
    "methods": {}
  }
}