{
  "contractName": "ChitFund",
  "abi": [
    {
      "inputs": [
        {
          "internalType": "string",
          "name": "_fundName",
          "type": "string"
        },
        {
          "internalType": "uint256",
          "name": "_installmentAmount",
          "type": "uint256"
        },
        {
          "internalType": "uint256",
          "name": "_numOfInstallments",
          "type": "uint256"
        },
        {
          "internalType": "uint256",
          "name": "_noOfInvestors",
          "type": "uint256"
        }
      ],
      "stateMutability": "nonpayable",
      "type": "constructor"
    },
    {
      "inputs": [],
      "name": "currentRound",
      "outputs": [
        {
          "internalType": "uint256",
          "name": "",
          "type": "uint256"
        }
      ],
      "stateMutability": "view",
      "type": "function",
      "constant": true
    },
    {
      "inputs": [],
      "name": "fundBalance",
      "outputs": [
        {
          "internalType": "uint256",
          "name": "",
          "type": "uint256"
        }
      ],
      "stateMutability": "view",
      "type": "function",
      "constant": true
    },
    {
      "inputs": [],
      "name": "fundName",
      "outputs": [
        {
          "internalType": "string",
          "name": "",
          "type": "string"
        }
      ],
      "stateMutability": "view",
      "type": "function",
      "constant": true
    },
    {
      "inputs": [],
      "name": "installmentAmount",
      "outputs": [
        {
          "internalType": "uint256",
          "name": "",
          "type": "uint256"
        }
      ],
      "stateMutability": "view",
      "type": "function",
      "constant": true
    },
    {
      "inputs": [
        {
          "internalType": "address",
          "name": "",
          "type": "address"
        }
      ],
      "name": "investors",
      "outputs": [
        {
          "internalType": "bool",
          "name": "hasJoined",
          "type": "bool"
        },
        {
          "internalType": "uint256",
          "name": "installmentCounter",
          "type": "uint256"
        },
        {
          "internalType": "bool",
          "name": "isReadyToInvest",
          "type": "bool"
        },
        {
          "internalType": "bool",
          "name": "canBid",
          "type": "bool"
        },
        {
          "internalType": "bool",
          "name": "hasWonARound",
          "type": "bool"
        }
      ],
      "stateMutability": "view",
      "type": "function",
      "constant": true
    },
    {
      "inputs": [],
      "name": "jackpot",
      "outputs": [
        {
          "internalType": "uint256",
          "name": "",
          "type": "uint256"
        }
      ],
      "stateMutability": "view",
      "type": "function",
      "constant": true
    },
    {
      "inputs": [],
      "name": "manager",
      "outputs": [
        {
          "internalType": "address",
          "name": "",
          "type": "address"
        }
      ],
      "stateMutability": "view",
      "type": "function",
      "constant": true
    },
    {
      "inputs": [],
      "name": "noOfInvestors",
      "outputs": [
        {
          "internalType": "uint256",
          "name": "",
          "type": "uint256"
        }
      ],
      "stateMutability": "view",
      "type": "function",
      "constant": true
    },
    {
      "inputs": [],
      "name": "noOfInvestorsJoined",
      "outputs": [
        {
          "internalType": "uint256",
          "name": "",
          "type": "uint256"
        }
      ],
      "stateMutability": "view",
      "type": "function",
      "constant": true
    },
    {
      "inputs": [],
      "name": "numOfInstallments",
      "outputs": [
        {
          "internalType": "uint256",
          "name": "",
          "type": "uint256"
        }
      ],
      "stateMutability": "view",
      "type": "function",
      "constant": true
    },
    {
      "inputs": [],
      "name": "checkManager",
      "outputs": [
        {
          "internalType": "bool",
          "name": "",
          "type": "bool"
        }
      ],
      "stateMutability": "view",
      "type": "function",
      "constant": true
    },
    {
      "inputs": [],
      "name": "joinFund",
      "outputs": [],
      "stateMutability": "nonpayable",
      "type": "function"
    },
    {
      "inputs": [],
      "name": "contribute",
      "outputs": [],
      "stateMutability": "payable",
      "type": "function",
      "payable": true
    },
    {
      "inputs": [
        {
          "internalType": "uint256",
          "name": "_bid",
          "type": "uint256"
        }
      ],
      "name": "bidForJackpot",
      "outputs": [],
      "stateMutability": "nonpayable",
      "type": "function"
    },
    {
      "inputs": [],
      "name": "releaseFund",
      "outputs": [],
      "stateMutability": "payable",
      "type": "function",
      "payable": true
    },
    {
      "inputs": [],
      "name": "viewFund",
      "outputs": [
        {
          "internalType": "string",
          "name": "_fundName",
          "type": "string"
        },
        {
          "internalType": "uint256",
          "name": "_jackpot",
          "type": "uint256"
        },
        {
          "internalType": "uint256",
          "name": "_numOfInstallments",
          "type": "uint256"
        },
        {
          "internalType": "uint256",
          "name": "_noOfInvestors",
          "type": "uint256"
        },
        {
          "internalType": "uint256",
          "name": "_fundBalance",
          "type": "uint256"
        },
        {
          "internalType": "uint256",
          "name": "_installmentAmount",
          "type": "uint256"
        },
        {
          "internalType": "uint256",
          "name": "_noOfInvestorsJoined",
          "type": "uint256"
        },
        {
          "internalType": "uint256",
          "name": "_currentRound",
          "type": "uint256"
        }
      ],
      "stateMutability": "view",
      "type": "function",
      "constant": true
    }
  ],
  "bytecode": "0x608060405260006008556000600960006101000a81548173ffffffffffffffffffffffffffffffffffffffff021916908373ffffffffffffffffffffffffffffffffffffffff1602179055506001600a553480156200005d57600080fd5b5060405162001b0f38038062001b0f833981810160405260808110156200008357600080fd5b8101908080516040519392919084640100000000821115620000a457600080fd5b83820191506020820185811115620000bb57600080fd5b8251866001820283011164010000000082111715620000d957600080fd5b8083526020830192505050908051906020019080838360005b838110156200010f578082015181840152602081019050620000f2565b50505050905090810190601f1680156200013d5780820380516001836020036101000a031916815260200191505b5060405260200180519060200190929190805190602001909291908051906020019092919050505083600090805190602001906200017d92919062000294565b50816002819055508060038190555033600460006101000a81548173ffffffffffffffffffffffffffffffffffffffff021916908373ffffffffffffffffffffffffffffffffffffffff160217905550670de0b6b3a76400008302600581905550620001f96005546003546200020960201b620013f01760201c565b6001819055505050505062000343565b6000808314156200021e57600090506200028e565b60008284029050828482816200023057fe5b041462000289576040517f08c379a000000000000000000000000000000000000000000000000000000000815260040180806020018281038252602181526020018062001aee6021913960400191505060405180910390fd5b809150505b92915050565b828054600181600116156101000203166002900490600052602060002090601f016020900481019282601f10620002d757805160ff191683800117855562000308565b8280016001018555821562000308579182015b8281111562000307578251825591602001919060010190620002ea565b5b5090506200031791906200031b565b5090565b6200034091905b808211156200033c57600081600090555060010162000322565b5090565b90565b61179b80620003536000396000f3fe6080604052600436106100f35760003560e01c80638a19c8bc1161008a578063a2ff553911610059578063a2ff5539146103ef578063b142a304146103f9578063d7bb99ba146104ba578063dbacf574146104c4576100f3565b80638a19c8bc146102de5780639075825b146103095780639ce1413b146103345780639fbfb9a0146103c4576100f3565b806357cc772d116100c657806357cc772d146101bc5780636b31ee01146101f75780636f7bc9be146102225780638770998e146102b3576100f3565b80632367df9b146100f85780633c06794514610123578063481c6a751461014e5780634be957da146101a5575b600080fd5b34801561010457600080fd5b5061010d6104f3565b6040518082815260200191505060405180910390f35b34801561012f57600080fd5b506101386104f9565b6040518082815260200191505060405180910390f35b34801561015a57600080fd5b506101636104ff565b604051808273ffffffffffffffffffffffffffffffffffffffff1673ffffffffffffffffffffffffffffffffffffffff16815260200191505060405180910390f35b3480156101b157600080fd5b506101ba610525565b005b3480156101c857600080fd5b506101f5600480360360208110156101df57600080fd5b81019080803590602001909291905050506107a7565b005b34801561020357600080fd5b5061020c610a10565b6040518082815260200191505060405180910390f35b34801561022e57600080fd5b506102716004803603602081101561024557600080fd5b81019080803573ffffffffffffffffffffffffffffffffffffffff169060200190929190505050610a16565b60405180861515151581526020018581526020018415151515815260200183151515158152602001821515151581526020019550505050505060405180910390f35b3480156102bf57600080fd5b506102c8610a80565b6040518082815260200191505060405180910390f35b3480156102ea57600080fd5b506102f3610a86565b6040518082815260200191505060405180910390f35b34801561031557600080fd5b5061031e610a8c565b6040518082815260200191505060405180910390f35b34801561034057600080fd5b50610349610a92565b6040518080602001828103825283818151815260200191508051906020019080838360005b8381101561038957808201518184015260208101905061036e565b50505050905090810190601f1680156103b65780820380516001836020036101000a031916815260200191505b509250505060405180910390f35b3480156103d057600080fd5b506103d9610b30565b6040518082815260200191505060405180910390f35b6103f7610b36565b005b34801561040557600080fd5b5061040e610d61565b604051808060200189815260200188815260200187815260200186815260200185815260200184815260200183815260200182810382528a818151815260200191508051906020019080838360005b8381101561047857808201518184015260208101905061045d565b50505050905090810190601f1680156104a55780820380516001836020036101000a031916815260200191505b50995050505050505050505060405180910390f35b6104c2610e3a565b005b3480156104d057600080fd5b506104d9611324565b604051808215151515815260200191505060405180910390f35b60065481565b60075481565b600460009054906101000a900473ffffffffffffffffffffffffffffffffffffffff1681565b60035460065410610581576040517f08c379a000000000000000000000000000000000000000000000000000000000815260040180806020018281038252604b8152602001806116f8604b913960600191505060405180910390fd5b600b60003373ffffffffffffffffffffffffffffffffffffffff1673ffffffffffffffffffffffffffffffffffffffff16815260200190815260200160002060000160009054906101000a900460ff1615610627576040517f08c379a00000000000000000000000000000000000000000000000000000000081526004018080602001828103825260288152602001806116d06028913960400191505060405180910390fd5b6001600b60003373ffffffffffffffffffffffffffffffffffffffff1673ffffffffffffffffffffffffffffffffffffffff16815260200190815260200160002060000160006101000a81548160ff0219169083151502179055506001600b60003373ffffffffffffffffffffffffffffffffffffffff1673ffffffffffffffffffffffffffffffffffffffff16815260200190815260200160002060020160006101000a81548160ff0219169083151502179055506000600b60003373ffffffffffffffffffffffffffffffffffffffff1673ffffffffffffffffffffffffffffffffffffffff16815260200190815260200160002060020160016101000a81548160ff0219169083151502179055506000600b60003373ffffffffffffffffffffffffffffffffffffffff1673ffffffffffffffffffffffffffffffffffffffff16815260200190815260200160002060020160026101000a81548160ff021916908315150217905550600660008154809291906001019190505550565b600b60003373ffffffffffffffffffffffffffffffffffffffff1673ffffffffffffffffffffffffffffffffffffffff16815260200190815260200160002060020160029054906101000a900460ff1661084c576040517f08c379a00000000000000000000000000000000000000000000000000000000081526004018080602001828103825260238152602001806117436023913960400191505060405180910390fd5b60011515600b60003373ffffffffffffffffffffffffffffffffffffffff1673ffffffffffffffffffffffffffffffffffffffff16815260200190815260200160002060020160019054906101000a900460ff161515146108f8576040517f08c379a000000000000000000000000000000000000000000000000000000000815260040180806020018281038252605d8152602001806114e7605d913960600191505060405180910390fd5b6001600b60003373ffffffffffffffffffffffffffffffffffffffff1673ffffffffffffffffffffffffffffffffffffffff16815260200190815260200160002060020160006101000a81548160ff021916908315150217905550600081118015610964575060075481105b156109b25733600960006101000a81548173ffffffffffffffffffffffffffffffffffffffff021916908373ffffffffffffffffffffffffffffffffffffffff160217905550806008819055505b6000600b60003373ffffffffffffffffffffffffffffffffffffffff1673ffffffffffffffffffffffffffffffffffffffff16815260200190815260200160002060020160016101000a81548160ff02191690831515021790555050565b60015481565b600b6020528060005260406000206000915090508060000160009054906101000a900460ff16908060010154908060020160009054906101000a900460ff16908060020160019054906101000a900460ff16908060020160029054906101000a900460ff16905085565b60055481565b600a5481565b60035481565b60008054600181600116156101000203166002900480601f016020809104026020016040519081016040528092919081815260200182805460018160011615610100020316600290048015610b285780601f10610afd57610100808354040283529160200191610b28565b820191906000526020600020905b815481529060010190602001808311610b0b57829003601f168201915b505050505081565b60025481565b600460009054906101000a900473ffffffffffffffffffffffffffffffffffffffff1673ffffffffffffffffffffffffffffffffffffffff163373ffffffffffffffffffffffffffffffffffffffff1614610bf9576040517f08c379a000000000000000000000000000000000000000000000000000000000815260040180806020018281038252600d8152602001807f4f6e6c79204d616e61676572200000000000000000000000000000000000000081525060200191505060405180910390fd5b6001546007541015610c56576040517f08c379a00000000000000000000000000000000000000000000000000000000081526004018080602001828103825260588152602001806115fc6058913960600191505060405180910390fd5b600960009054906101000a900473ffffffffffffffffffffffffffffffffffffffff1673ffffffffffffffffffffffffffffffffffffffff166108fc6008549081150290604051600060405180830381858888f19350505050158015610cc0573d6000803e3d6000fd5b506001600b6000600960009054906101000a900473ffffffffffffffffffffffffffffffffffffffff1673ffffffffffffffffffffffffffffffffffffffff1673ffffffffffffffffffffffffffffffffffffffff16815260200190815260200160002060020160026101000a81548160ff021916908315150217905550600854600754036007819055506001600a5401600a819055506000600881905550565b6060600080600080600080600080600154600254600354600754600554600654600a54878054600181600116156101000203166002900480601f016020809104026020016040519081016040528092919081815260200182805460018160011615610100020316600290048015610e195780601f10610dee57610100808354040283529160200191610e19565b820191906000526020600020905b815481529060010190602001808311610dfc57829003601f168201915b50505050509750975097509750975097509750975097509091929394959697565b6005543414610e94576040517f08c379a00000000000000000000000000000000000000000000000000000000081526004018080602001828103825260388152602001806115c46038913960400191505060405180910390fd5b600b60003373ffffffffffffffffffffffffffffffffffffffff1673ffffffffffffffffffffffffffffffffffffffff16815260200190815260200160002060000160009054906101000a900460ff16610f39576040517f08c379a000000000000000000000000000000000000000000000000000000000815260040180806020018281038252602481526020018061168b6024913960400191505060405180910390fd5b600b60003373ffffffffffffffffffffffffffffffffffffffff1673ffffffffffffffffffffffffffffffffffffffff16815260200190815260200160002060020160009054906101000a900460ff16610fde576040517f08c379a00000000000000000000000000000000000000000000000000000000081526004018080602001828103825260708152602001806114776070913960800191505060405180910390fd5b600a54600b60003373ffffffffffffffffffffffffffffffffffffffff1673ffffffffffffffffffffffffffffffffffffffff168152602001908152602001600020600101541061107a576040517f08c379a00000000000000000000000000000000000000000000000000000000081526004018080602001828103825260708152602001806114776070913960800191505060405180910390fd5b600154600754106110d6576040517f08c379a00000000000000000000000000000000000000000000000000000000081526004018080602001828103825260808152602001806115446080913960800191505060405180910390fd5b600254600b60003373ffffffffffffffffffffffffffffffffffffffff1673ffffffffffffffffffffffffffffffffffffffff1681526020019081526020016000206001015410611172576040517f08c379a00000000000000000000000000000000000000000000000000000000081526004018080602001828103825260378152602001806116546037913960400191505060405180910390fd5b6001600b60003373ffffffffffffffffffffffffffffffffffffffff1673ffffffffffffffffffffffffffffffffffffffff1681526020019081526020016000206001015401600b60003373ffffffffffffffffffffffffffffffffffffffff1673ffffffffffffffffffffffffffffffffffffffff168152602001908152602001600020600101819055506000600b60003373ffffffffffffffffffffffffffffffffffffffff1673ffffffffffffffffffffffffffffffffffffffff16815260200190815260200160002060020160006101000a81548160ff02191690831515021790555060011515600b60003373ffffffffffffffffffffffffffffffffffffffff1673ffffffffffffffffffffffffffffffffffffffff16815260200190815260200160002060020160029054906101000a900460ff161515151415611312576001600b60003373ffffffffffffffffffffffffffffffffffffffff1673ffffffffffffffffffffffffffffffffffffffff16815260200190815260200160002060020160016101000a81548160ff0219169083151502179055505b34600760008282540192505081905550565b6000600460009054906101000a900473ffffffffffffffffffffffffffffffffffffffff1673ffffffffffffffffffffffffffffffffffffffff163373ffffffffffffffffffffffffffffffffffffffff16146113e9576040517f08c379a000000000000000000000000000000000000000000000000000000000815260040180806020018281038252600d8152602001807f4f6e6c79204d616e61676572200000000000000000000000000000000000000081525060200191505060405180910390fd5b6001905090565b6000808314156114035760009050611470565b600082840290508284828161141457fe5b041461146b576040517f08c379a00000000000000000000000000000000000000000000000000000000081526004018080602001828103825260218152602001806116af6021913960400191505060405180910390fd5b809150505b9291505056fe596f75206861766520616c726561647920636f6e747269627574656420746f207468697320726f756e642c20796f752063616e6e6f7420696e7665737420756e74696c20616674657220746865206a61636b706f74206f66207468697320726f756e6420697320616e6e6f756e636564596f752063616e6e6f742062696420756e74696c20796f75206861766520636f6e747269627574656420666f72207468697320726f756e642c20616e6420796f75206d6179206f6e6c7920626964206f6e63652070657220726f756e6446756e642069732066756c6c792066756e64656420666f72207468697320726f756e642e20596f752063616e6e6f7420636f6e7472696275746520756e74696c207468652066756e64732068617665206265656e2064697370757273656420746f207468652077696e6e696e6720626964646572207468697320726f756e642e537570706c69656420616d6f756e7420697320646966666572656e742066726f6d2074686520496e7374616c6c6d656e7420616d6f756e7443616e6e6f742072656c656173652066756e647320666f72207468697320726f756e6420756e74696c20616c6c20696e766573746f7220636f6e747269627574696f6e732068617665206265656e2072656365697665642e596f75206861766520616c7265616479207061696420616c6c2074686520696e7374616c6c6d656e747320696e20746869732066756e64596f7520617265206e6f742070617274206f66207468652063757272656e742066756e64536166654d6174683a206d756c7469706c69636174696f6e206f766572666c6f77596f752061726520616c72656164792070617274206f66207468652063757272656e742066756e645468652066756e642068617320616c7265616479207265616368656420697473206d6178696d756d20696e766573746f72732e20506c656173652074727920616e6f746865722066756e64596f75207765726520612077696e6e657220696e20612070726576696f757320626964a2646970667358221220e433d3f34ebe34f598b39cb9b13ab755920bb00779cdaa3b64b614f5f4bdb8ca64736f6c63430006080033536166654d6174683a206d756c7469706c69636174696f6e206f766572666c6f77",
  "immutableReferences": {},
  "source": "// SPDX-License-Identifier: MIT\r\n\r\npragma solidity ^0.6.8;\r\n// import \"../node_modules/@openzeppelin/contracts/math/SafeMath.sol\";\r\n\r\nimport \"@openzeppelin/contracts/math/SafeMath.sol\";\r\n\r\ncontract ChitFund {\r\n    using SafeMath for uint256;\r\n    \r\n    // This are constants once the fund is created\r\n    string public fundName;\r\n    uint256 public jackpot;\r\n    uint256 public numOfInstallments;\r\n    uint256 public noOfInvestors;\r\n    address public manager;\r\n    uint256 public installmentAmount;\r\n    \r\n    // This will be incremented but then remain throughout all of the subsequent rounds of bidding\r\n    uint256 public noOfInvestorsJoined;\r\n    \r\n    // These will change between rounds\r\n    uint256 public fundBalance;\r\n    uint256 private currentRoundLowestBid = 0;\r\n    address payable private winnerThisRound = address(0);\r\n    uint256 public currentRound = 1;\r\n\r\n    struct Investor {\r\n        bool hasJoined;\r\n        uint256 installmentCounter;\r\n        bool isReadyToInvest;\r\n        bool canBid;\r\n        bool hasWonARound;\r\n    }\r\n\r\n    mapping(address => Investor) public investors;\r\n\r\n    modifier isManager() {\r\n        require(msg.sender == manager, \"Only Manager \");\r\n        _;\r\n    }\r\n\r\n    function checkManager() public view returns (bool) {\r\n        require(msg.sender == manager, \"Only Manager \");\r\n        return true;\r\n    }\r\n\r\n    constructor(\r\n        string memory _fundName,\r\n        uint256 _installmentAmount,\r\n        uint256 _numOfInstallments,\r\n        uint256 _noOfInvestors\r\n    ) public {\r\n        fundName = _fundName;\r\n        numOfInstallments = _numOfInstallments;\r\n        noOfInvestors = _noOfInvestors;\r\n        manager = msg.sender;  // TODO determine who message.sender is on contract deployment, also consider adding this to constructor to make it configurable?\r\n        installmentAmount = _installmentAmount * 1e18;  // 1e18 = 1eth, or 10000000000000000 wei\r\n        jackpot = SafeMath.mul(installmentAmount, noOfInvestors);\r\n    }\r\n\r\n    // function getinstallmentAmount() public view returns (uint _amount) {\r\n    //   return installmentAmount;\r\n    // }\r\n\r\n    function joinFund() public {\r\n        require(\r\n            noOfInvestorsJoined < noOfInvestors,\r\n            \"The fund has already reached its maximum investors. Please try another fund\"\r\n        );\r\n        require(\r\n            !investors[msg.sender].hasJoined, \"You are already part of the current fund\"\r\n        );\r\n        investors[msg.sender].hasJoined = true;\r\n        investors[msg.sender].isReadyToInvest = true;\r\n        investors[msg.sender].canBid = false;\r\n        investors[msg.sender].hasWonARound = false;\r\n        noOfInvestorsJoined++;\r\n    }\r\n\r\n    function contribute() public payable {\r\n        require(\r\n            msg.value == installmentAmount,\r\n            \"Supplied amount is different from the Installment amount\"\r\n        );\r\n        require(\r\n            investors[msg.sender].hasJoined,\r\n            \"You are not part of the current fund\"\r\n        );\r\n        require(\r\n            investors[msg.sender].isReadyToInvest,\r\n            \"You have already contributed to this round, you cannot invest until after the jackpot of this round is announced\"\r\n        );\r\n        require( investors[msg.sender].installmentCounter < currentRound,\r\n            \"You have already contributed to this round, you cannot invest until after the jackpot of this round is announced\"\r\n        );\r\n        require(fundBalance < jackpot, \"Fund is fully funded for this round. You cannot contribute until the funds have been dispursed to the winning bidder this round.\");\r\n        require(\r\n            investors[msg.sender].installmentCounter < numOfInstallments,\r\n            \"You have already paid all the installments in this fund\"\r\n        );\r\n        investors[msg.sender].installmentCounter = investors[msg.sender].installmentCounter + 1;\r\n        investors[msg.sender].isReadyToInvest = false; // has contributed, cannot contribute again until the round is over\r\n        if (!investors[msg.sender].hasWonARound == true) {\r\n            investors[msg.sender].canBid = true;\r\n        }\r\n        fundBalance += msg.value;\r\n    }\r\n\r\n    function bidForJackpot(uint256 _bid) public {\r\n        require(\r\n            investors[msg.sender].hasWonARound,\r\n            \"You were a winner in a previous bid\"\r\n        );\r\n        require(\r\n            investors[msg.sender].canBid == true, \"You cannot bid until you have contributed for this round, and you may only bid once per round\"\r\n        );\r\n        investors[msg.sender].isReadyToInvest = true;\r\n        if (_bid > 0 && _bid < fundBalance) { // bids must be less than the total balance of the fund.\r\n            winnerThisRound = msg.sender;\r\n            currentRoundLowestBid = _bid;\r\n        }\r\n        investors[msg.sender].canBid = false;\r\n    }\r\n\r\n   // function calculateWinnersJackpot(address _winner) private returns (uint256) {  // TODO: why the math here? why not jackpot just be lowest bid?\r\n    //    uint256 percentage = investors[_winner].currentBidPercentage;\r\n    //    uint256 x = SafeMath.mul(fundBalance, percentage);\r\n    //    uint256 y = SafeMath.div(x, 100);  //TODO what is this calc doing? Throwing this away for now\r\n    //    winnersAmount = fundBalance - y;\r\n    //    investors[_winner].canBid = false;\r\n   //     return winnersAmount;\r\n //   }\r\n\r\n\r\n    function releaseFund() public payable isManager {\r\n        require(fundBalance >= jackpot, \"Cannot release funds for this round until all investor contributions have been received.\");        \r\n        winnerThisRound.transfer(currentRoundLowestBid);  //TODO  look up transfer function later\r\n        investors[winnerThisRound].hasWonARound = true;\r\n        fundBalance = fundBalance - currentRoundLowestBid;\r\n        currentRound = currentRound + 1;\r\n        currentRoundLowestBid = 0;\r\n    }\r\n\r\n    function viewFund()\r\n        public\r\n        view\r\n        returns (\r\n            string memory _fundName,\r\n            uint256 _jackpot,\r\n            uint256 _numOfInstallments,\r\n            uint256 _noOfInvestors,\r\n            uint256 _fundBalance,\r\n            uint256 _installmentAmount,\r\n            uint256 _noOfInvestorsJoined,\r\n            uint256 _currentRound\r\n        )\r\n    {\r\n        return (\r\n            fundName,\r\n            jackpot,\r\n            numOfInstallments,\r\n            noOfInvestors,\r\n            fundBalance,\r\n            installmentAmount,\r\n            noOfInvestorsJoined,\r\n            currentRound\r\n        );\r\n    }\r\n\r\n\r\n    // Some features to consider for later if time allows\r\n    //TODO make a function to destroy fund\r\n    //TODO make a function to kick member from fund, update variables to allow someone else to take their place\r\n    //TODO make a function to reset the fund back to 0 assuming all of the installments and jackpots have been paid.\r\n    //TODO make a function to return any funds left over after the last round to all members equally?\r\n}\r\n",
  "sourcePath": "C:\\Users\\aaols\\ICS-690-ETH\\chitFund\\contracts\\ChitFund.sol",
  "compiler": {
    "name": "solc",
    "version": "0.6.8+commit.0bbfe453.Emscripten.clang"
  },
  "schemaVersion": "3.4.4",
  "updatedAt": "2022-02-13T17:25:51.214Z",
  "networkType": "ethereum",
  "devdoc": {
    "methods": {}
  },
  "userdoc": {
    "methods": {}
  }
}