{
  "contractName": "ChitFund",
  "abi": [
    {
      "inputs": [
        {
          "internalType": "string",
          "name": "_fundName",
          "type": "string"
        },
        {
          "internalType": "uint256",
          "name": "_installmentAmount",
          "type": "uint256"
        },
        {
          "internalType": "uint256",
          "name": "_noOfInstallments",
          "type": "uint256"
        },
        {
          "internalType": "uint256",
          "name": "_noOfInvestors",
          "type": "uint256"
        }
      ],
      "payable": false,
      "stateMutability": "nonpayable",
      "type": "constructor"
    },
    {
      "constant": true,
      "inputs": [
        {
          "internalType": "address",
          "name": "",
          "type": "address"
        }
      ],
      "name": "investors",
      "outputs": [
        {
          "internalType": "bool",
          "name": "hasJoined",
          "type": "bool"
        },
        {
          "internalType": "bool",
          "name": "gotJackpot",
          "type": "bool"
        },
        {
          "internalType": "uint256",
          "name": "installementCounter",
          "type": "uint256"
        },
        {
          "internalType": "bool",
          "name": "isReadytoInvest",
          "type": "bool"
        },
        {
          "internalType": "bool",
          "name": "canBid",
          "type": "bool"
        },
        {
          "internalType": "uint256",
          "name": "currentBidPercentage",
          "type": "uint256"
        }
      ],
      "payable": false,
      "stateMutability": "view",
      "type": "function"
    },
    {
      "constant": false,
      "inputs": [],
      "name": "joinFund",
      "outputs": [],
      "payable": false,
      "stateMutability": "nonpayable",
      "type": "function"
    },
    {
      "constant": false,
      "inputs": [],
      "name": "contribute",
      "outputs": [],
      "payable": true,
      "stateMutability": "payable",
      "type": "function"
    },
    {
      "constant": false,
      "inputs": [
        {
          "internalType": "uint256",
          "name": "_bid",
          "type": "uint256"
        }
      ],
      "name": "bidForJackpot",
      "outputs": [],
      "payable": false,
      "stateMutability": "nonpayable",
      "type": "function"
    },
    {
      "constant": true,
      "inputs": [],
      "name": "getWinner",
      "outputs": [
        {
          "internalType": "address",
          "name": "",
          "type": "address"
        }
      ],
      "payable": false,
      "stateMutability": "view",
      "type": "function"
    },
    {
      "constant": false,
      "inputs": [],
      "name": "releaseFund",
      "outputs": [],
      "payable": true,
      "stateMutability": "payable",
      "type": "function"
    },
    {
      "constant": true,
      "inputs": [],
      "name": "viewFund",
      "outputs": [
        {
          "internalType": "string",
          "name": "_fundName",
          "type": "string"
        },
        {
          "internalType": "uint256",
          "name": "_jackpot",
          "type": "uint256"
        },
        {
          "internalType": "uint256",
          "name": "_noOfInstallments",
          "type": "uint256"
        },
        {
          "internalType": "uint256",
          "name": "_noOfInvestors",
          "type": "uint256"
        },
        {
          "internalType": "uint256",
          "name": "_fundBalance",
          "type": "uint256"
        },
        {
          "internalType": "uint256",
          "name": "_installmentAmount",
          "type": "uint256"
        },
        {
          "internalType": "uint256",
          "name": "_noOfInvestorsJoined",
          "type": "uint256"
        }
      ],
      "payable": false,
      "stateMutability": "view",
      "type": "function"
    }
  ],
  "bytecode": "0x60806040526000600860006101000a81548173ffffffffffffffffffffffffffffffffffffffff021916908373ffffffffffffffffffffffffffffffffffffffff16021790555060006009553480156200005857600080fd5b506040516200148038038062001480833981810160405260808110156200007e57600080fd5b81019080805160405193929190846401000000008211156200009f57600080fd5b83820191506020820185811115620000b657600080fd5b8251866001820283011164010000000082111715620000d457600080fd5b8083526020830192505050908051906020019080838360005b838110156200010a578082015181840152602081019050620000ed565b50505050905090810190601f168015620001385780820380516001836020036101000a031916815260200191505b506040526020018051906020019092919080519060200190929190805190602001909291905050508360009080519060200190620001789291906200028f565b50816002819055508060038190555033600460006101000a81548173ffffffffffffffffffffffffffffffffffffffff021916908373ffffffffffffffffffffffffffffffffffffffff160217905550670de0b6b3a76400008302600681905550620001f46006546003546200020460201b62000de71760201c565b600181905550505050506200033e565b60008083141562000219576000905062000289565b60008284029050828482816200022b57fe5b041462000284576040517f08c379a00000000000000000000000000000000000000000000000000000000081526004018080602001828103825260218152602001806200145f6021913960400191505060405180910390fd5b809150505b92915050565b828054600181600116156101000203166002900490600052602060002090601f016020900481019282601f10620002d257805160ff191683800117855562000303565b8280016001018555821562000303579182015b8281111562000302578251825591602001919060010190620002e5565b5b50905062000312919062000316565b5090565b6200033b91905b80821115620003375760008160009055506001016200031d565b5090565b90565b611111806200034e6000396000f3fe6080604052600436106100705760003560e01c80638e7ea5b21161004e5780638e7ea5b21461015f578063a2ff5539146101b6578063b142a304146101c0578063d7bb99ba1461027a57610070565b80634be957da1461007557806357cc772d1461008c5780636f7bc9be146100c7575b600080fd5b34801561008157600080fd5b5061008a610284565b005b34801561009857600080fd5b506100c5600480360360208110156100af57600080fd5b8101908080359060200190929190505050610450565b005b3480156100d357600080fd5b50610116600480360360208110156100ea57600080fd5b81019080803573ffffffffffffffffffffffffffffffffffffffff1690602001909291905050506105ed565b6040518087151515158152602001861515151581526020018581526020018415151515815260200183151515158152602001828152602001965050505050505060405180910390f35b34801561016b57600080fd5b5061017461065d565b604051808273ffffffffffffffffffffffffffffffffffffffff1673ffffffffffffffffffffffffffffffffffffffff16815260200191505060405180910390f35b6101be610687565b005b3480156101cc57600080fd5b506101d5610869565b6040518080602001888152602001878152602001868152602001858152602001848152602001838152602001828103825289818151815260200191508051906020019080838360005b8381101561023957808201518184015260208101905061021e565b50505050905090810190601f1680156102665780820380516001836020036101000a031916815260200191505b509850505050505050505060405180910390f35b61028261093b565b005b600354600754106102e0576040517f08c379a000000000000000000000000000000000000000000000000000000000815260040180806020018281038252603c81526020018061104c603c913960400191505060405180910390fd5b600b60003373ffffffffffffffffffffffffffffffffffffffff1673ffffffffffffffffffffffffffffffffffffffff16815260200190815260200160002060000160009054906101000a900460ff1615610386576040517f08c379a00000000000000000000000000000000000000000000000000000000081526004018080602001828103825260288152602001806110b56028913960400191505060405180910390fd5b6001600b60003373ffffffffffffffffffffffffffffffffffffffff1673ffffffffffffffffffffffffffffffffffffffff16815260200190815260200160002060000160006101000a81548160ff0219169083151502179055506001600b60003373ffffffffffffffffffffffffffffffffffffffff1673ffffffffffffffffffffffffffffffffffffffff16815260200190815260200160002060020160006101000a81548160ff021916908315150217905550600760008154809291906001019190505550565b600b60003373ffffffffffffffffffffffffffffffffffffffff1673ffffffffffffffffffffffffffffffffffffffff16815260200190815260200160002060020160019054906101000a900460ff166104f5576040517f08c379a0000000000000000000000000000000000000000000000000000000008152600401808060200182810382526026815260200180610fe16026913960400191505060405180910390fd5b80600b60003373ffffffffffffffffffffffffffffffffffffffff1673ffffffffffffffffffffffffffffffffffffffff168152602001908152602001600020600301819055506001600b60003373ffffffffffffffffffffffffffffffffffffffff1673ffffffffffffffffffffffffffffffffffffffff16815260200190815260200160002060020160006101000a81548160ff0219169083151502179055506009548111156105ea5733600860006101000a81548173ffffffffffffffffffffffffffffffffffffffff021916908373ffffffffffffffffffffffffffffffffffffffff160217905550806009819055505b50565b600b6020528060005260406000206000915090508060000160009054906101000a900460ff16908060000160019054906101000a900460ff16908060010154908060020160009054906101000a900460ff16908060020160019054906101000a900460ff16908060030154905086565b6000600860009054906101000a900473ffffffffffffffffffffffffffffffffffffffff16905090565b600460009054906101000a900473ffffffffffffffffffffffffffffffffffffffff1673ffffffffffffffffffffffffffffffffffffffff163373ffffffffffffffffffffffffffffffffffffffff161461074a576040517f08c379a000000000000000000000000000000000000000000000000000000000815260040180806020018281038252600d8152602001807f4f6e6c79204d616e61676572200000000000000000000000000000000000000081525060200191505060405180910390fd5b600154600554146107c3576040517f08c379a00000000000000000000000000000000000000000000000000000000081526004018080602001828103825260168152602001807f436f6e747269627574696f6e732072657175697265640000000000000000000081525060200191505060405180910390fd5b60006107f0600860009054906101000a900473ffffffffffffffffffffffffffffffffffffffff16610d0d565b9050600860009054906101000a900473ffffffffffffffffffffffffffffffffffffffff1673ffffffffffffffffffffffffffffffffffffffff166108fc829081150290604051600060405180830381858888f1935050505015801561085a573d6000803e3d6000fd5b50806005540360058190555050565b60606000806000806000806000600154600254600354600554600654600754868054600181600116156101000203166002900480601f01602080910402602001604051908101604052809291908181526020018280546001816001161561010002031660029004801561091d5780601f106108f25761010080835404028352916020019161091d565b820191906000526020600020905b81548152906001019060200180831161090057829003601f168201915b50505050509650965096509650965096509650965090919293949596565b6006543414610995576040517f08c379a0000000000000000000000000000000000000000000000000000000008152600401808060200182810382526038815260200180610f7e6038913960400191505060405180910390fd5b600b60003373ffffffffffffffffffffffffffffffffffffffff1673ffffffffffffffffffffffffffffffffffffffff16815260200190815260200160002060000160009054906101000a900460ff16610a3a576040517f08c379a00000000000000000000000000000000000000000000000000000000081526004018080602001828103825260248152602001806110076024913960400191505060405180910390fd5b600b60003373ffffffffffffffffffffffffffffffffffffffff1673ffffffffffffffffffffffffffffffffffffffff16815260200190815260200160002060020160009054906101000a900460ff16610adf576040517f08c379a000000000000000000000000000000000000000000000000000000000815260040180806020018281038252602d815260200180611088602d913960400191505060405180910390fd5b60015460055410610b58576040517f08c379a000000000000000000000000000000000000000000000000000000000815260040180806020018281038252600c8152602001807f46756e642069732066756c6c000000000000000000000000000000000000000081525060200191505060405180910390fd5b600254600b60003373ffffffffffffffffffffffffffffffffffffffff1673ffffffffffffffffffffffffffffffffffffffff1681526020019081526020016000206001015410610bf4576040517f08c379a000000000000000000000000000000000000000000000000000000000815260040180806020018281038252602b815260200180610fb6602b913960400191505060405180910390fd5b6001600b60003373ffffffffffffffffffffffffffffffffffffffff1673ffffffffffffffffffffffffffffffffffffffff168152602001908152602001600020600101600082825401925050819055506000600b60003373ffffffffffffffffffffffffffffffffffffffff1673ffffffffffffffffffffffffffffffffffffffff16815260200190815260200160002060020160006101000a81548160ff0219169083151502179055506001600b60003373ffffffffffffffffffffffffffffffffffffffff1673ffffffffffffffffffffffffffffffffffffffff16815260200190815260200160002060020160016101000a81548160ff02191690831515021790555034600560008282540192505081905550565b600080600b60008473ffffffffffffffffffffffffffffffffffffffff1673ffffffffffffffffffffffffffffffffffffffff1681526020019081526020016000206003015490506000610d6360055483610de7565b90506000610d72826064610e6d565b90508060055403600a819055506000600b60008773ffffffffffffffffffffffffffffffffffffffff1673ffffffffffffffffffffffffffffffffffffffff16815260200190815260200160002060020160016101000a81548160ff021916908315150217905550600a549350505050919050565b600080831415610dfa5760009050610e67565b6000828402905082848281610e0b57fe5b0414610e62576040517f08c379a000000000000000000000000000000000000000000000000000000000815260040180806020018281038252602181526020018061102b6021913960400191505060405180910390fd5b809150505b92915050565b6000610eaf83836040518060400160405280601a81526020017f536166654d6174683a206469766973696f6e206279207a65726f000000000000815250610eb7565b905092915050565b60008083118290610f63576040517f08c379a00000000000000000000000000000000000000000000000000000000081526004018080602001828103825283818151815260200191508051906020019080838360005b83811015610f28578082015181840152602081019050610f0d565b50505050905090810190601f168015610f555780820380516001836020036101000a031916815260200191505b509250505060405180910390fd5b506000838581610f6f57fe5b04905080915050939250505056fe537570706c69656420616d6f756e7420697320646966666572656e742066726f6d2074686520496e7374616c6c6d656e7420616d6f756e74596f75206861766520616c6c7265616479207061696c20616c6c2074686520696e7374616c6c6d656e7473596f75207765726520612077696e6e657220696e2070726576696f75732062696464696e6773596f7520617265206e6f742070617274206f66207468652063757272656e742066756e64536166654d6174683a206d756c7469706c69636174696f6e206f766572666c6f775468652066756e64207265616368656420697473206d6178696d756d20696e766573746f72732c20706c792074727920616e6f746865722066756e64596f752043616e20696e7665737420616674657220746865206a61636b706f7420697320616e6e6f756e636564596f752061726520616c72656164792070617274206f66207468652063757272656e742066756e64a265627a7a7231582081913c7695c27817a263ea132b71b93c6a746249ef200e15abca74979cc6c4e964736f6c63430005100032536166654d6174683a206d756c7469706c69636174696f6e206f766572666c6f77",
  "source": "// SPDX-License-Identifier: MIT\n\npragma solidity ^0.5.0;\n// import 'https://github.com/OpenZeppelin/openzeppelin-contracts/blob/master/contracts/math/SafeMath.sol';\nimport \"@openzeppelin/contracts/math/SafeMath.sol\";\ncontract ChitFund {\n\n    using SafeMath for uint;\n\n    string private fundName;\n    uint private jackpot;\n    uint private noOfInstallments;\n    uint private noOfInvestors;\n    address private manager;\n    uint private fundBalance;\n    uint private installmentAmount;\n    uint private noOfInvestorsJoined;\n    address payable private winner =address(0);\n    uint private winnersBid = 0;\n    uint private  winnersAmount;\n\n\n\n\n    struct Investor{\n      bool hasJoined;\n      bool gotJackpot;\n      uint installementCounter;\n      bool isReadytoInvest;\n      bool canBid;\n      uint currentBidPercentage;\n    }\n\n    mapping(address => Investor) public investors;\n\n    modifier isManager() {\n        require(msg.sender == manager,'Only Manager ');\n        _;\n    }\n    constructor (string memory _fundName, uint _installmentAmount, uint _noOfInstallments, uint _noOfInvestors) public {\n        fundName = _fundName;\n        noOfInstallments = _noOfInstallments;\n        noOfInvestors = _noOfInvestors;\n        manager = msg.sender;\n        installmentAmount = _installmentAmount * 1e18;\n        jackpot = SafeMath.mul(installmentAmount,noOfInvestors);\n    }\n\n    // function getinstallmentAmount() public view returns (uint _amount) {\n    //   return installmentAmount;\n    // }\n\n\n\n\n    function joinFund() public {\n        require(noOfInvestorsJoined < noOfInvestors, 'The fund reached its maximum investors, ply try another fund');\n        require(!investors[msg.sender].hasJoined,'You are already part of the current fund');\n        investors[msg.sender].hasJoined = true;\n        investors[msg.sender].isReadytoInvest = true;\n        noOfInvestorsJoined++;\n    }\n\n    function contribute()  payable public {\n        require(msg.value == installmentAmount,'Supplied amount is different from the Installment amount');\n        require(investors[msg.sender].hasJoined,'You are not part of the current fund');\n        require(investors[msg.sender].isReadytoInvest,'You Can invest after the jackpot is announced');\n        require(fundBalance < jackpot,'Fund is full');\n        require(investors[msg.sender].installementCounter < noOfInstallments,'You have allready pail all the installments');\n        investors[msg.sender].installementCounter += 1;\n        investors[msg.sender].isReadytoInvest = false;\n        investors[msg.sender].canBid = true;\n\n\n        fundBalance += msg.value;\n    }\n\n    function bidForJackpot(uint _bid) public {\n        require(investors[msg.sender].canBid,'You were a winner in previous biddings');\n        investors[msg.sender].currentBidPercentage = _bid;\n        investors[msg.sender].isReadytoInvest = true;\n         // winnersBid = _bid;\n        if(_bid > winnersBid){\n          winner = msg.sender;\n          winnersBid = _bid;\n        }\n\n    }\n\n    function getWinner() view public returns (address) {\n      return winner;\n    }\n\n    function calculateWinnesJackpot(address  _winner) private returns(uint)  {\n      uint percentage = investors[_winner].currentBidPercentage;\n      uint x = SafeMath.mul(fundBalance,percentage);\n      uint y = SafeMath.div(x,100);\n      winnersAmount = fundBalance - y;\n      investors[_winner].canBid = false;\n      return winnersAmount;\n\n    }\n\n\n    function releaseFund() public payable isManager {\n      require(fundBalance == jackpot,'Contributions required');\n      uint _winnersAmount = calculateWinnesJackpot(winner);\n      winner.transfer(_winnersAmount);\n      fundBalance = fundBalance - _winnersAmount;\n\n    }\n    function viewFund() public view returns (\n      string memory _fundName,\n      uint _jackpot,\n      uint _noOfInstallments,\n      uint _noOfInvestors,\n      uint _fundBalance,\n      uint _installmentAmount,\n      uint _noOfInvestorsJoined )\n      {\n      return(fundName,jackpot,noOfInstallments,noOfInvestors,fundBalance,installmentAmount,noOfInvestorsJoined\n      );\n    }\n\n\n\n\n\n}\n",
  "sourcePath": "/home/hargobind/Desktop/projects/ChitFundBox/contracts/ChitFund.sol",
  "compiler": {
    "name": "solc",
    "version": "0.5.16+commit.9c3226ce.Emscripten.clang"
  },
  "schemaVersion": "3.2.0",
  "updatedAt": "2020-05-28T09:18:45.056Z",
  "networkType": "ethereum",
  "devdoc": {
    "methods": {}
  },
  "userdoc": {
    "methods": {}
  }
}